{
  "_format": "hh-sol-artifact-1",
  "contractName": "BloximaCandidateNFT",
  "sourceName": "contracts/BloximaCandidateNFT.sol",
  "abi": [
    {
      "inputs": [],
      "stateMutability": "nonpayable",
      "type": "constructor"
    },
    {
      "inputs": [
        {
          "internalType": "address",
          "name": "sender",
          "type": "address"
        },
        {
          "internalType": "uint256",
          "name": "tokenId",
          "type": "uint256"
        },
        {
          "internalType": "address",
          "name": "owner",
          "type": "address"
        }
      ],
      "name": "ERC721IncorrectOwner",
      "type": "error"
    },
    {
      "inputs": [
        {
          "internalType": "address",
          "name": "operator",
          "type": "address"
        },
        {
          "internalType": "uint256",
          "name": "tokenId",
          "type": "uint256"
        }
      ],
      "name": "ERC721InsufficientApproval",
      "type": "error"
    },
    {
      "inputs": [
        {
          "internalType": "address",
          "name": "approver",
          "type": "address"
        }
      ],
      "name": "ERC721InvalidApprover",
      "type": "error"
    },
    {
      "inputs": [
        {
          "internalType": "address",
          "name": "operator",
          "type": "address"
        }
      ],
      "name": "ERC721InvalidOperator",
      "type": "error"
    },
    {
      "inputs": [
        {
          "internalType": "address",
          "name": "owner",
          "type": "address"
        }
      ],
      "name": "ERC721InvalidOwner",
      "type": "error"
    },
    {
      "inputs": [
        {
          "internalType": "address",
          "name": "receiver",
          "type": "address"
        }
      ],
      "name": "ERC721InvalidReceiver",
      "type": "error"
    },
    {
      "inputs": [
        {
          "internalType": "address",
          "name": "sender",
          "type": "address"
        }
      ],
      "name": "ERC721InvalidSender",
      "type": "error"
    },
    {
      "inputs": [
        {
          "internalType": "uint256",
          "name": "tokenId",
          "type": "uint256"
        }
      ],
      "name": "ERC721NonexistentToken",
      "type": "error"
    },
    {
      "anonymous": false,
      "inputs": [
        {
          "indexed": true,
          "internalType": "address",
          "name": "owner",
          "type": "address"
        },
        {
          "indexed": true,
          "internalType": "address",
          "name": "approved",
          "type": "address"
        },
        {
          "indexed": true,
          "internalType": "uint256",
          "name": "tokenId",
          "type": "uint256"
        }
      ],
      "name": "Approval",
      "type": "event"
    },
    {
      "anonymous": false,
      "inputs": [
        {
          "indexed": true,
          "internalType": "address",
          "name": "owner",
          "type": "address"
        },
        {
          "indexed": true,
          "internalType": "address",
          "name": "operator",
          "type": "address"
        },
        {
          "indexed": false,
          "internalType": "bool",
          "name": "approved",
          "type": "bool"
        }
      ],
      "name": "ApprovalForAll",
      "type": "event"
    },
    {
      "anonymous": false,
      "inputs": [
        {
          "indexed": true,
          "internalType": "address",
          "name": "from",
          "type": "address"
        },
        {
          "indexed": true,
          "internalType": "address",
          "name": "to",
          "type": "address"
        },
        {
          "indexed": true,
          "internalType": "uint256",
          "name": "tokenId",
          "type": "uint256"
        }
      ],
      "name": "Transfer",
      "type": "event"
    },
    {
      "inputs": [
        {
          "internalType": "address",
          "name": "to",
          "type": "address"
        },
        {
          "internalType": "uint256",
          "name": "tokenId",
          "type": "uint256"
        }
      ],
      "name": "approve",
      "outputs": [],
      "stateMutability": "nonpayable",
      "type": "function"
    },
    {
      "inputs": [
        {
          "internalType": "address",
          "name": "owner",
          "type": "address"
        }
      ],
      "name": "balanceOf",
      "outputs": [
        {
          "internalType": "uint256",
          "name": "",
          "type": "uint256"
        }
      ],
      "stateMutability": "view",
      "type": "function"
    },
    {
      "inputs": [],
      "name": "baseURI",
      "outputs": [
        {
          "internalType": "string",
          "name": "",
          "type": "string"
        }
      ],
      "stateMutability": "view",
      "type": "function"
    },
    {
      "inputs": [
        {
          "internalType": "uint256",
          "name": "tokenId",
          "type": "uint256"
        }
      ],
      "name": "getApproved",
      "outputs": [
        {
          "internalType": "address",
          "name": "",
          "type": "address"
        }
      ],
      "stateMutability": "view",
      "type": "function"
    },
    {
      "inputs": [
        {
          "internalType": "address",
          "name": "",
          "type": "address"
        }
      ],
      "name": "hasMintedNFT",
      "outputs": [
        {
          "internalType": "bool",
          "name": "",
          "type": "bool"
        }
      ],
      "stateMutability": "view",
      "type": "function"
    },
    {
      "inputs": [
        {
          "internalType": "address",
          "name": "owner",
          "type": "address"
        },
        {
          "internalType": "address",
          "name": "operator",
          "type": "address"
        }
      ],
      "name": "isApprovedForAll",
      "outputs": [
        {
          "internalType": "bool",
          "name": "",
          "type": "bool"
        }
      ],
      "stateMutability": "view",
      "type": "function"
    },
    {
      "inputs": [],
      "name": "mintNFT",
      "outputs": [],
      "stateMutability": "nonpayable",
      "type": "function"
    },
    {
      "inputs": [],
      "name": "name",
      "outputs": [
        {
          "internalType": "string",
          "name": "",
          "type": "string"
        }
      ],
      "stateMutability": "view",
      "type": "function"
    },
    {
      "inputs": [],
      "name": "owner",
      "outputs": [
        {
          "internalType": "address",
          "name": "",
          "type": "address"
        }
      ],
      "stateMutability": "view",
      "type": "function"
    },
    {
      "inputs": [
        {
          "internalType": "uint256",
          "name": "tokenId",
          "type": "uint256"
        }
      ],
      "name": "ownerOf",
      "outputs": [
        {
          "internalType": "address",
          "name": "",
          "type": "address"
        }
      ],
      "stateMutability": "view",
      "type": "function"
    },
    {
      "inputs": [
        {
          "internalType": "address",
          "name": "from",
          "type": "address"
        },
        {
          "internalType": "address",
          "name": "to",
          "type": "address"
        },
        {
          "internalType": "uint256",
          "name": "tokenId",
          "type": "uint256"
        }
      ],
      "name": "safeTransferFrom",
      "outputs": [],
      "stateMutability": "nonpayable",
      "type": "function"
    },
    {
      "inputs": [
        {
          "internalType": "address",
          "name": "from",
          "type": "address"
        },
        {
          "internalType": "address",
          "name": "to",
          "type": "address"
        },
        {
          "internalType": "uint256",
          "name": "tokenId",
          "type": "uint256"
        },
        {
          "internalType": "bytes",
          "name": "data",
          "type": "bytes"
        }
      ],
      "name": "safeTransferFrom",
      "outputs": [],
      "stateMutability": "nonpayable",
      "type": "function"
    },
    {
      "inputs": [
        {
          "internalType": "address",
          "name": "operator",
          "type": "address"
        },
        {
          "internalType": "bool",
          "name": "approved",
          "type": "bool"
        }
      ],
      "name": "setApprovalForAll",
      "outputs": [],
      "stateMutability": "nonpayable",
      "type": "function"
    },
    {
      "inputs": [
        {
          "internalType": "string",
          "name": "_baseURIString",
          "type": "string"
        }
      ],
      "name": "setBaseURI",
      "outputs": [],
      "stateMutability": "nonpayable",
      "type": "function"
    },
    {
      "inputs": [
        {
          "internalType": "bytes4",
          "name": "interfaceId",
          "type": "bytes4"
        }
      ],
      "name": "supportsInterface",
      "outputs": [
        {
          "internalType": "bool",
          "name": "",
          "type": "bool"
        }
      ],
      "stateMutability": "view",
      "type": "function"
    },
    {
      "inputs": [],
      "name": "symbol",
      "outputs": [
        {
          "internalType": "string",
          "name": "",
          "type": "string"
        }
      ],
      "stateMutability": "view",
      "type": "function"
    },
    {
      "inputs": [],
      "name": "tokenCounter",
      "outputs": [
        {
          "internalType": "uint256",
          "name": "",
          "type": "uint256"
        }
      ],
      "stateMutability": "view",
      "type": "function"
    },
    {
      "inputs": [
        {
          "internalType": "uint256",
          "name": "_tokenId",
          "type": "uint256"
        }
      ],
      "name": "tokenURI",
      "outputs": [
        {
          "internalType": "string",
          "name": "",
          "type": "string"
        }
      ],
      "stateMutability": "view",
      "type": "function"
    },
    {
      "inputs": [
        {
          "internalType": "address",
          "name": "from",
          "type": "address"
        },
        {
          "internalType": "address",
          "name": "to",
          "type": "address"
        },
        {
          "internalType": "uint256",
          "name": "tokenId",
          "type": "uint256"
        }
      ],
      "name": "transferFrom",
      "outputs": [],
      "stateMutability": "nonpayable",
      "type": "function"
    }
  ],
  "bytecode": "0x60806040526040518060600160405280602681526020016200281860269139600890816200002e919062000398565b503480156200003c57600080fd5b506040518060400160405280601381526020017f426c6f78696d6143616e6469646174654e4654000000000000000000000000008152506040518060400160405280600581526020017f42434e46540000000000000000000000000000000000000000000000000000008152508160009081620000ba919062000398565b508060019081620000cc919062000398565b505050600060068190555033600760006101000a81548173ffffffffffffffffffffffffffffffffffffffff021916908373ffffffffffffffffffffffffffffffffffffffff1602179055506200047f565b600081519050919050565b7f4e487b7100000000000000000000000000000000000000000000000000000000600052604160045260246000fd5b7f4e487b7100000000000000000000000000000000000000000000000000000000600052602260045260246000fd5b60006002820490506001821680620001a057607f821691505b602082108103620001b657620001b562000158565b5b50919050565b60008190508160005260206000209050919050565b60006020601f8301049050919050565b600082821b905092915050565b600060088302620002207fffffffffffffffffffffffffffffffffffffffffffffffffffffffffffffffff82620001e1565b6200022c8683620001e1565b95508019841693508086168417925050509392505050565b6000819050919050565b6000819050919050565b600062000279620002736200026d8462000244565b6200024e565b62000244565b9050919050565b6000819050919050565b620002958362000258565b620002ad620002a48262000280565b848454620001ee565b825550505050565b600090565b620002c4620002b5565b620002d18184846200028a565b505050565b5b81811015620002f957620002ed600082620002ba565b600181019050620002d7565b5050565b601f82111562000348576200031281620001bc565b6200031d84620001d1565b810160208510156200032d578190505b620003456200033c85620001d1565b830182620002d6565b50505b505050565b600082821c905092915050565b60006200036d600019846008026200034d565b1980831691505092915050565b60006200038883836200035a565b9150826002028217905092915050565b620003a3826200011e565b67ffffffffffffffff811115620003bf57620003be62000129565b5b620003cb825462000187565b620003d8828285620002fd565b600060209050601f831160018114620004105760008415620003fb578287015190505b6200040785826200037a565b86555062000477565b601f1984166200042086620001bc565b60005b828110156200044a5784890151825560018201915060208501945060208101905062000423565b868310156200046a578489015162000466601f8916826200035a565b8355505b6001600288020188555050505b505050505050565b612389806200048f6000396000f3fe608060405234801561001057600080fd5b50600436106101215760003560e01c80636c0360eb116100ad578063b88d4fde11610071578063b88d4fde146102f4578063c87b56dd14610310578063d082e38114610340578063e28cb25a1461035e578063e985e9c51461038e57610121565b80636c0360eb1461024e57806370a082311461026c5780638da5cb5b1461029c57806395d89b41146102ba578063a22cb465146102d857610121565b806314f710fe116100f457806314f710fe146101c057806323b872dd146101ca57806342842e0e146101e657806355f804b3146102025780636352211e1461021e57610121565b806301ffc9a71461012657806306fdde0314610156578063081812fc14610174578063095ea7b3146101a4575b600080fd5b610140600480360381019061013b9190611785565b6103be565b60405161014d91906117cd565b60405180910390f35b61015e6104a0565b60405161016b9190611878565b60405180910390f35b61018e600480360381019061018991906118d0565b610532565b60405161019b919061193e565b60405180910390f35b6101be60048036038101906101b99190611985565b61054e565b005b6101c8610564565b005b6101e460048036038101906101df91906119c5565b61066f565b005b61020060048036038101906101fb91906119c5565b610771565b005b61021c60048036038101906102179190611b4d565b610791565b005b610238600480360381019061023391906118d0565b610834565b604051610245919061193e565b60405180910390f35b610256610846565b6040516102639190611878565b60405180910390f35b61028660048036038101906102819190611b96565b6108d4565b6040516102939190611bd2565b60405180910390f35b6102a461098e565b6040516102b1919061193e565b60405180910390f35b6102c26109b4565b6040516102cf9190611878565b60405180910390f35b6102f260048036038101906102ed9190611c19565b610a46565b005b61030e60048036038101906103099190611cfa565b610a5c565b005b61032a600480360381019061032591906118d0565b610a79565b6040516103379190611878565b60405180910390f35b610348610a8a565b6040516103559190611bd2565b60405180910390f35b61037860048036038101906103739190611b96565b610a90565b60405161038591906117cd565b60405180910390f35b6103a860048036038101906103a39190611d7d565b610ab0565b6040516103b591906117cd565b60405180910390f35b60007f80ac58cd000000000000000000000000000000000000000000000000000000007bffffffffffffffffffffffffffffffffffffffffffffffffffffffff1916827bffffffffffffffffffffffffffffffffffffffffffffffffffffffff1916148061048957507f5b5e139f000000000000000000000000000000000000000000000000000000007bffffffffffffffffffffffffffffffffffffffffffffffffffffffff1916827bffffffffffffffffffffffffffffffffffffffffffffffffffffffff1916145b80610499575061049882610b44565b5b9050919050565b6060600080546104af90611dec565b80601f01602080910402602001604051908101604052809291908181526020018280546104db90611dec565b80156105285780601f106104fd57610100808354040283529160200191610528565b820191906000526020600020905b81548152906001019060200180831161050b57829003601f168201915b5050505050905090565b600061053d82610bae565b5061054782610c36565b9050919050565b610560828261055b610c73565b610c7b565b5050565b600960003373ffffffffffffffffffffffffffffffffffffffff1673ffffffffffffffffffffffffffffffffffffffff16815260200190815260200160002060009054906101000a900460ff16156105f1576040517f08c379a00000000000000000000000000000000000000000000000000000000081526004016105e890611e8f565b60405180910390fd5b6105fd33600654610c8d565b6006600081548092919061061090611ede565b91905055506001600960003373ffffffffffffffffffffffffffffffffffffffff1673ffffffffffffffffffffffffffffffffffffffff16815260200190815260200160002060006101000a81548160ff021916908315150217905550565b600073ffffffffffffffffffffffffffffffffffffffff168273ffffffffffffffffffffffffffffffffffffffff16036106e15760006040517f64a0ae920000000000000000000000000000000000000000000000000000000081526004016106d8919061193e565b60405180910390fd5b60006106f583836106f0610c73565b610cab565b90508373ffffffffffffffffffffffffffffffffffffffff168173ffffffffffffffffffffffffffffffffffffffff161461076b578382826040517f64283d7b00000000000000000000000000000000000000000000000000000000815260040161076293929190611f26565b60405180910390fd5b50505050565b61078c83838360405180602001604052806000815250610a5c565b505050565b600760009054906101000a900473ffffffffffffffffffffffffffffffffffffffff1673ffffffffffffffffffffffffffffffffffffffff163373ffffffffffffffffffffffffffffffffffffffff1614610821576040517f08c379a000000000000000000000000000000000000000000000000000000000815260040161081890611fa9565b60405180910390fd5b80600890816108309190612175565b5050565b600061083f82610bae565b9050919050565b6008805461085390611dec565b80601f016020809104026020016040519081016040528092919081815260200182805461087f90611dec565b80156108cc5780601f106108a1576101008083540402835291602001916108cc565b820191906000526020600020905b8154815290600101906020018083116108af57829003601f168201915b505050505081565b60008073ffffffffffffffffffffffffffffffffffffffff168273ffffffffffffffffffffffffffffffffffffffff16036109475760006040517f89c62b6400000000000000000000000000000000000000000000000000000000815260040161093e919061193e565b60405180910390fd5b600360008373ffffffffffffffffffffffffffffffffffffffff1673ffffffffffffffffffffffffffffffffffffffff168152602001908152602001600020549050919050565b600760009054906101000a900473ffffffffffffffffffffffffffffffffffffffff1681565b6060600180546109c390611dec565b80601f01602080910402602001604051908101604052809291908181526020018280546109ef90611dec565b8015610a3c5780601f10610a1157610100808354040283529160200191610a3c565b820191906000526020600020905b815481529060010190602001808311610a1f57829003601f168201915b5050505050905090565b610a58610a51610c73565b8383610ec5565b5050565b610a6784848461066f565b610a7384848484611034565b50505050565b6060610a836111eb565b9050919050565b60065481565b60096020528060005260406000206000915054906101000a900460ff1681565b6000600560008473ffffffffffffffffffffffffffffffffffffffff1673ffffffffffffffffffffffffffffffffffffffff16815260200190815260200160002060008373ffffffffffffffffffffffffffffffffffffffff1673ffffffffffffffffffffffffffffffffffffffff16815260200190815260200160002060009054906101000a900460ff16905092915050565b60007f01ffc9a7000000000000000000000000000000000000000000000000000000007bffffffffffffffffffffffffffffffffffffffffffffffffffffffff1916827bffffffffffffffffffffffffffffffffffffffffffffffffffffffff1916149050919050565b600080610bba8361127d565b9050600073ffffffffffffffffffffffffffffffffffffffff168173ffffffffffffffffffffffffffffffffffffffff1603610c2d57826040517f7e273289000000000000000000000000000000000000000000000000000000008152600401610c249190611bd2565b60405180910390fd5b80915050919050565b60006004600083815260200190815260200160002060009054906101000a900473ffffffffffffffffffffffffffffffffffffffff169050919050565b600033905090565b610c8883838360016112ba565b505050565b610ca782826040518060200160405280600081525061147f565b5050565b600080610cb78461127d565b9050600073ffffffffffffffffffffffffffffffffffffffff168373ffffffffffffffffffffffffffffffffffffffff1614610cf957610cf881848661149b565b5b600073ffffffffffffffffffffffffffffffffffffffff168173ffffffffffffffffffffffffffffffffffffffff1614610d8a57610d3b6000856000806112ba565b6001600360008373ffffffffffffffffffffffffffffffffffffffff1673ffffffffffffffffffffffffffffffffffffffff168152602001908152602001600020600082825403925050819055505b600073ffffffffffffffffffffffffffffffffffffffff168573ffffffffffffffffffffffffffffffffffffffff1614610e0d576001600360008773ffffffffffffffffffffffffffffffffffffffff1673ffffffffffffffffffffffffffffffffffffffff168152602001908152602001600020600082825401925050819055505b846002600086815260200190815260200160002060006101000a81548173ffffffffffffffffffffffffffffffffffffffff021916908373ffffffffffffffffffffffffffffffffffffffff160217905550838573ffffffffffffffffffffffffffffffffffffffff168273ffffffffffffffffffffffffffffffffffffffff167fddf252ad1be2c89b69c2b068fc378daa952ba7f163c4a11628f55a4df523b3ef60405160405180910390a4809150509392505050565b600073ffffffffffffffffffffffffffffffffffffffff168273ffffffffffffffffffffffffffffffffffffffff1603610f3657816040517f5b08ba18000000000000000000000000000000000000000000000000000000008152600401610f2d919061193e565b60405180910390fd5b80600560008573ffffffffffffffffffffffffffffffffffffffff1673ffffffffffffffffffffffffffffffffffffffff16815260200190815260200160002060008473ffffffffffffffffffffffffffffffffffffffff1673ffffffffffffffffffffffffffffffffffffffff16815260200190815260200160002060006101000a81548160ff0219169083151502179055508173ffffffffffffffffffffffffffffffffffffffff168373ffffffffffffffffffffffffffffffffffffffff167f17307eab39ab6107e8899845ad3d59bd9653f200f220920489ca2b5937696c318360405161102791906117cd565b60405180910390a3505050565b60008373ffffffffffffffffffffffffffffffffffffffff163b11156111e5578273ffffffffffffffffffffffffffffffffffffffff1663150b7a02611078610c73565b8685856040518563ffffffff1660e01b815260040161109a949392919061229c565b6020604051808303816000875af19250505080156110d657506040513d601f19601f820116820180604052508101906110d391906122fd565b60015b61115a573d8060008114611106576040519150601f19603f3d011682016040523d82523d6000602084013e61110b565b606091505b50600081510361115257836040517f64a0ae92000000000000000000000000000000000000000000000000000000008152600401611149919061193e565b60405180910390fd5b805181602001fd5b63150b7a0260e01b7bffffffffffffffffffffffffffffffffffffffffffffffffffffffff1916817bffffffffffffffffffffffffffffffffffffffffffffffffffffffff1916146111e357836040517f64a0ae920000000000000000000000000000000000000000000000000000000081526004016111da919061193e565b60405180910390fd5b505b50505050565b6060600880546111fa90611dec565b80601f016020809104026020016040519081016040528092919081815260200182805461122690611dec565b80156112735780601f1061124857610100808354040283529160200191611273565b820191906000526020600020905b81548152906001019060200180831161125657829003601f168201915b5050505050905090565b60006002600083815260200190815260200160002060009054906101000a900473ffffffffffffffffffffffffffffffffffffffff169050919050565b80806112f35750600073ffffffffffffffffffffffffffffffffffffffff168273ffffffffffffffffffffffffffffffffffffffff1614155b1561142757600061130384610bae565b9050600073ffffffffffffffffffffffffffffffffffffffff168373ffffffffffffffffffffffffffffffffffffffff161415801561136e57508273ffffffffffffffffffffffffffffffffffffffff168173ffffffffffffffffffffffffffffffffffffffff1614155b8015611381575061137f8184610ab0565b155b156113c357826040517fa9fbf51f0000000000000000000000000000000000000000000000000000000081526004016113ba919061193e565b60405180910390fd5b811561142557838573ffffffffffffffffffffffffffffffffffffffff168273ffffffffffffffffffffffffffffffffffffffff167f8c5be1e5ebec7d5bd14f71427d1e84f3dd0314c0f7b2291e5b200ac8c7c3b92560405160405180910390a45b505b836004600085815260200190815260200160002060006101000a81548173ffffffffffffffffffffffffffffffffffffffff021916908373ffffffffffffffffffffffffffffffffffffffff16021790555050505050565b611489838361155f565b6114966000848484611034565b505050565b6114a6838383611658565b61155a57600073ffffffffffffffffffffffffffffffffffffffff168373ffffffffffffffffffffffffffffffffffffffff160361151b57806040517f7e2732890000000000000000000000000000000000000000000000000000000081526004016115129190611bd2565b60405180910390fd5b81816040517f177e802f00000000000000000000000000000000000000000000000000000000815260040161155192919061232a565b60405180910390fd5b505050565b600073ffffffffffffffffffffffffffffffffffffffff168273ffffffffffffffffffffffffffffffffffffffff16036115d15760006040517f64a0ae920000000000000000000000000000000000000000000000000000000081526004016115c8919061193e565b60405180910390fd5b60006115df83836000610cab565b9050600073ffffffffffffffffffffffffffffffffffffffff168173ffffffffffffffffffffffffffffffffffffffff16146116535760006040517f73c6ac6e00000000000000000000000000000000000000000000000000000000815260040161164a919061193e565b60405180910390fd5b505050565b60008073ffffffffffffffffffffffffffffffffffffffff168373ffffffffffffffffffffffffffffffffffffffff161415801561171057508273ffffffffffffffffffffffffffffffffffffffff168473ffffffffffffffffffffffffffffffffffffffff1614806116d157506116d08484610ab0565b5b8061170f57508273ffffffffffffffffffffffffffffffffffffffff166116f783610c36565b73ffffffffffffffffffffffffffffffffffffffff16145b5b90509392505050565b6000604051905090565b600080fd5b600080fd5b60007fffffffff0000000000000000000000000000000000000000000000000000000082169050919050565b6117628161172d565b811461176d57600080fd5b50565b60008135905061177f81611759565b92915050565b60006020828403121561179b5761179a611723565b5b60006117a984828501611770565b91505092915050565b60008115159050919050565b6117c7816117b2565b82525050565b60006020820190506117e260008301846117be565b92915050565b600081519050919050565b600082825260208201905092915050565b60005b83811015611822578082015181840152602081019050611807565b60008484015250505050565b6000601f19601f8301169050919050565b600061184a826117e8565b61185481856117f3565b9350611864818560208601611804565b61186d8161182e565b840191505092915050565b60006020820190508181036000830152611892818461183f565b905092915050565b6000819050919050565b6118ad8161189a565b81146118b857600080fd5b50565b6000813590506118ca816118a4565b92915050565b6000602082840312156118e6576118e5611723565b5b60006118f4848285016118bb565b91505092915050565b600073ffffffffffffffffffffffffffffffffffffffff82169050919050565b6000611928826118fd565b9050919050565b6119388161191d565b82525050565b6000602082019050611953600083018461192f565b92915050565b6119628161191d565b811461196d57600080fd5b50565b60008135905061197f81611959565b92915050565b6000806040838503121561199c5761199b611723565b5b60006119aa85828601611970565b92505060206119bb858286016118bb565b9150509250929050565b6000806000606084860312156119de576119dd611723565b5b60006119ec86828701611970565b93505060206119fd86828701611970565b9250506040611a0e868287016118bb565b9150509250925092565b600080fd5b600080fd5b7f4e487b7100000000000000000000000000000000000000000000000000000000600052604160045260246000fd5b611a5a8261182e565b810181811067ffffffffffffffff82111715611a7957611a78611a22565b5b80604052505050565b6000611a8c611719565b9050611a988282611a51565b919050565b600067ffffffffffffffff821115611ab857611ab7611a22565b5b611ac18261182e565b9050602081019050919050565b82818337600083830152505050565b6000611af0611aeb84611a9d565b611a82565b905082815260208101848484011115611b0c57611b0b611a1d565b5b611b17848285611ace565b509392505050565b600082601f830112611b3457611b33611a18565b5b8135611b44848260208601611add565b91505092915050565b600060208284031215611b6357611b62611723565b5b600082013567ffffffffffffffff811115611b8157611b80611728565b5b611b8d84828501611b1f565b91505092915050565b600060208284031215611bac57611bab611723565b5b6000611bba84828501611970565b91505092915050565b611bcc8161189a565b82525050565b6000602082019050611be76000830184611bc3565b92915050565b611bf6816117b2565b8114611c0157600080fd5b50565b600081359050611c1381611bed565b92915050565b60008060408385031215611c3057611c2f611723565b5b6000611c3e85828601611970565b9250506020611c4f85828601611c04565b9150509250929050565b600067ffffffffffffffff821115611c7457611c73611a22565b5b611c7d8261182e565b9050602081019050919050565b6000611c9d611c9884611c59565b611a82565b905082815260208101848484011115611cb957611cb8611a1d565b5b611cc4848285611ace565b509392505050565b600082601f830112611ce157611ce0611a18565b5b8135611cf1848260208601611c8a565b91505092915050565b60008060008060808587031215611d1457611d13611723565b5b6000611d2287828801611970565b9450506020611d3387828801611970565b9350506040611d44878288016118bb565b925050606085013567ffffffffffffffff811115611d6557611d64611728565b5b611d7187828801611ccc565b91505092959194509250565b60008060408385031215611d9457611d93611723565b5b6000611da285828601611970565b9250506020611db385828601611970565b9150509250929050565b7f4e487b7100000000000000000000000000000000000000000000000000000000600052602260045260246000fd5b60006002820490506001821680611e0457607f821691505b602082108103611e1757611e16611dbd565b5b50919050565b7f596f752063616e206f6e6c79206d696e74206f6e65204e46542070657220776160008201527f6c6c657400000000000000000000000000000000000000000000000000000000602082015250565b6000611e796024836117f3565b9150611e8482611e1d565b604082019050919050565b60006020820190508181036000830152611ea881611e6c565b9050919050565b7f4e487b7100000000000000000000000000000000000000000000000000000000600052601160045260246000fd5b6000611ee98261189a565b91507fffffffffffffffffffffffffffffffffffffffffffffffffffffffffffffffff8203611f1b57611f1a611eaf565b5b600182019050919050565b6000606082019050611f3b600083018661192f565b611f486020830185611bc3565b611f55604083018461192f565b949350505050565b7f4f6e6c79206f776e65722063616e207365742062617365205552490000000000600082015250565b6000611f93601b836117f3565b9150611f9e82611f5d565b602082019050919050565b60006020820190508181036000830152611fc281611f86565b9050919050565b60008190508160005260206000209050919050565b60006020601f8301049050919050565b600082821b905092915050565b60006008830261202b7fffffffffffffffffffffffffffffffffffffffffffffffffffffffffffffffff82611fee565b6120358683611fee565b95508019841693508086168417925050509392505050565b6000819050919050565b600061207261206d6120688461189a565b61204d565b61189a565b9050919050565b6000819050919050565b61208c83612057565b6120a061209882612079565b848454611ffb565b825550505050565b600090565b6120b56120a8565b6120c0818484612083565b505050565b5b818110156120e4576120d96000826120ad565b6001810190506120c6565b5050565b601f821115612129576120fa81611fc9565b61210384611fde565b81016020851015612112578190505b61212661211e85611fde565b8301826120c5565b50505b505050565b600082821c905092915050565b600061214c6000198460080261212e565b1980831691505092915050565b6000612165838361213b565b9150826002028217905092915050565b61217e826117e8565b67ffffffffffffffff81111561219757612196611a22565b5b6121a18254611dec565b6121ac8282856120e8565b600060209050601f8311600181146121df57600084156121cd578287015190505b6121d78582612159565b86555061223f565b601f1984166121ed86611fc9565b60005b82811015612215578489015182556001820191506020850194506020810190506121f0565b86831015612232578489015161222e601f89168261213b565b8355505b6001600288020188555050505b505050505050565b600081519050919050565b600082825260208201905092915050565b600061226e82612247565b6122788185612252565b9350612288818560208601611804565b6122918161182e565b840191505092915050565b60006080820190506122b1600083018761192f565b6122be602083018661192f565b6122cb6040830185611bc3565b81810360608301526122dd8184612263565b905095945050505050565b6000815190506122f781611759565b92915050565b60006020828403121561231357612312611723565b5b6000612321848285016122e8565b91505092915050565b600060408201905061233f600083018561192f565b61234c6020830184611bc3565b939250505056fea264697066735822122050ad7824536774a101a6f0696436d99497eb1e753a900c1e7bc3338b41d9f02264736f6c6343000818003368747470733a2f2f6170692e6b65756e677a2e636f6d2f7967707a2f6d657461646174612f31",
  "linkReferences": {},
  "deployedLinkReferences": {}
}