{
  "_format": "hh-sol-artifact-1",
  "contractName": "BloximaNFT",
  "sourceName": "contracts/BloximaNFT.sol",
  "abi": [
    {
      "inputs": [
        {
          "internalType": "address",
          "name": "bloximaCandidateNFTAddress",
          "type": "address"
        }
      ],
      "stateMutability": "nonpayable",
      "type": "constructor"
    },
    {
      "inputs": [
        {
          "internalType": "address",
          "name": "sender",
          "type": "address"
        },
        {
          "internalType": "uint256",
          "name": "tokenId",
          "type": "uint256"
        },
        {
          "internalType": "address",
          "name": "owner",
          "type": "address"
        }
      ],
      "name": "ERC721IncorrectOwner",
      "type": "error"
    },
    {
      "inputs": [
        {
          "internalType": "address",
          "name": "operator",
          "type": "address"
        },
        {
          "internalType": "uint256",
          "name": "tokenId",
          "type": "uint256"
        }
      ],
      "name": "ERC721InsufficientApproval",
      "type": "error"
    },
    {
      "inputs": [
        {
          "internalType": "address",
          "name": "approver",
          "type": "address"
        }
      ],
      "name": "ERC721InvalidApprover",
      "type": "error"
    },
    {
      "inputs": [
        {
          "internalType": "address",
          "name": "operator",
          "type": "address"
        }
      ],
      "name": "ERC721InvalidOperator",
      "type": "error"
    },
    {
      "inputs": [
        {
          "internalType": "address",
          "name": "owner",
          "type": "address"
        }
      ],
      "name": "ERC721InvalidOwner",
      "type": "error"
    },
    {
      "inputs": [
        {
          "internalType": "address",
          "name": "receiver",
          "type": "address"
        }
      ],
      "name": "ERC721InvalidReceiver",
      "type": "error"
    },
    {
      "inputs": [
        {
          "internalType": "address",
          "name": "sender",
          "type": "address"
        }
      ],
      "name": "ERC721InvalidSender",
      "type": "error"
    },
    {
      "inputs": [
        {
          "internalType": "uint256",
          "name": "tokenId",
          "type": "uint256"
        }
      ],
      "name": "ERC721NonexistentToken",
      "type": "error"
    },
    {
      "anonymous": false,
      "inputs": [
        {
          "indexed": true,
          "internalType": "address",
          "name": "owner",
          "type": "address"
        },
        {
          "indexed": true,
          "internalType": "address",
          "name": "approved",
          "type": "address"
        },
        {
          "indexed": true,
          "internalType": "uint256",
          "name": "tokenId",
          "type": "uint256"
        }
      ],
      "name": "Approval",
      "type": "event"
    },
    {
      "anonymous": false,
      "inputs": [
        {
          "indexed": true,
          "internalType": "address",
          "name": "owner",
          "type": "address"
        },
        {
          "indexed": true,
          "internalType": "address",
          "name": "operator",
          "type": "address"
        },
        {
          "indexed": false,
          "internalType": "bool",
          "name": "approved",
          "type": "bool"
        }
      ],
      "name": "ApprovalForAll",
      "type": "event"
    },
    {
      "anonymous": false,
      "inputs": [
        {
          "indexed": true,
          "internalType": "address",
          "name": "from",
          "type": "address"
        },
        {
          "indexed": true,
          "internalType": "address",
          "name": "to",
          "type": "address"
        },
        {
          "indexed": true,
          "internalType": "uint256",
          "name": "tokenId",
          "type": "uint256"
        }
      ],
      "name": "Transfer",
      "type": "event"
    },
    {
      "inputs": [
        {
          "internalType": "address",
          "name": "to",
          "type": "address"
        },
        {
          "internalType": "uint256",
          "name": "tokenId",
          "type": "uint256"
        }
      ],
      "name": "approve",
      "outputs": [],
      "stateMutability": "nonpayable",
      "type": "function"
    },
    {
      "inputs": [
        {
          "internalType": "address",
          "name": "owner",
          "type": "address"
        }
      ],
      "name": "balanceOf",
      "outputs": [
        {
          "internalType": "uint256",
          "name": "",
          "type": "uint256"
        }
      ],
      "stateMutability": "view",
      "type": "function"
    },
    {
      "inputs": [],
      "name": "candidateNFTContract",
      "outputs": [
        {
          "internalType": "contract BloximaCandidateNFT",
          "name": "",
          "type": "address"
        }
      ],
      "stateMutability": "view",
      "type": "function"
    },
    {
      "inputs": [
        {
          "internalType": "uint256",
          "name": "tokenId",
          "type": "uint256"
        }
      ],
      "name": "getApproved",
      "outputs": [
        {
          "internalType": "address",
          "name": "",
          "type": "address"
        }
      ],
      "stateMutability": "view",
      "type": "function"
    },
    {
      "inputs": [
        {
          "internalType": "address",
          "name": "",
          "type": "address"
        }
      ],
      "name": "hasMintedNFT",
      "outputs": [
        {
          "internalType": "bool",
          "name": "",
          "type": "bool"
        }
      ],
      "stateMutability": "view",
      "type": "function"
    },
    {
      "inputs": [
        {
          "internalType": "address",
          "name": "owner",
          "type": "address"
        },
        {
          "internalType": "address",
          "name": "operator",
          "type": "address"
        }
      ],
      "name": "isApprovedForAll",
      "outputs": [
        {
          "internalType": "bool",
          "name": "",
          "type": "bool"
        }
      ],
      "stateMutability": "view",
      "type": "function"
    },
    {
      "inputs": [],
      "name": "maxSupply",
      "outputs": [
        {
          "internalType": "uint256",
          "name": "",
          "type": "uint256"
        }
      ],
      "stateMutability": "view",
      "type": "function"
    },
    {
      "inputs": [],
      "name": "mintNFT",
      "outputs": [],
      "stateMutability": "nonpayable",
      "type": "function"
    },
    {
      "inputs": [],
      "name": "name",
      "outputs": [
        {
          "internalType": "string",
          "name": "",
          "type": "string"
        }
      ],
      "stateMutability": "view",
      "type": "function"
    },
    {
      "inputs": [],
      "name": "owner",
      "outputs": [
        {
          "internalType": "address",
          "name": "",
          "type": "address"
        }
      ],
      "stateMutability": "view",
      "type": "function"
    },
    {
      "inputs": [
        {
          "internalType": "uint256",
          "name": "tokenId",
          "type": "uint256"
        }
      ],
      "name": "ownerOf",
      "outputs": [
        {
          "internalType": "address",
          "name": "",
          "type": "address"
        }
      ],
      "stateMutability": "view",
      "type": "function"
    },
    {
      "inputs": [
        {
          "internalType": "address",
          "name": "from",
          "type": "address"
        },
        {
          "internalType": "address",
          "name": "to",
          "type": "address"
        },
        {
          "internalType": "uint256",
          "name": "tokenId",
          "type": "uint256"
        }
      ],
      "name": "safeTransferFrom",
      "outputs": [],
      "stateMutability": "nonpayable",
      "type": "function"
    },
    {
      "inputs": [
        {
          "internalType": "address",
          "name": "from",
          "type": "address"
        },
        {
          "internalType": "address",
          "name": "to",
          "type": "address"
        },
        {
          "internalType": "uint256",
          "name": "tokenId",
          "type": "uint256"
        },
        {
          "internalType": "bytes",
          "name": "data",
          "type": "bytes"
        }
      ],
      "name": "safeTransferFrom",
      "outputs": [],
      "stateMutability": "nonpayable",
      "type": "function"
    },
    {
      "inputs": [
        {
          "internalType": "address",
          "name": "operator",
          "type": "address"
        },
        {
          "internalType": "bool",
          "name": "approved",
          "type": "bool"
        }
      ],
      "name": "setApprovalForAll",
      "outputs": [],
      "stateMutability": "nonpayable",
      "type": "function"
    },
    {
      "inputs": [
        {
          "internalType": "address",
          "name": "_bloximaCandidateNFTAddress",
          "type": "address"
        }
      ],
      "name": "setCandidateNFTContract",
      "outputs": [],
      "stateMutability": "nonpayable",
      "type": "function"
    },
    {
      "inputs": [
        {
          "internalType": "bytes4",
          "name": "interfaceId",
          "type": "bytes4"
        }
      ],
      "name": "supportsInterface",
      "outputs": [
        {
          "internalType": "bool",
          "name": "",
          "type": "bool"
        }
      ],
      "stateMutability": "view",
      "type": "function"
    },
    {
      "inputs": [],
      "name": "symbol",
      "outputs": [
        {
          "internalType": "string",
          "name": "",
          "type": "string"
        }
      ],
      "stateMutability": "view",
      "type": "function"
    },
    {
      "inputs": [],
      "name": "tokenCounter",
      "outputs": [
        {
          "internalType": "uint256",
          "name": "",
          "type": "uint256"
        }
      ],
      "stateMutability": "view",
      "type": "function"
    },
    {
      "inputs": [
        {
          "internalType": "uint256",
          "name": "_tokenId",
          "type": "uint256"
        }
      ],
      "name": "tokenURI",
      "outputs": [
        {
          "internalType": "string",
          "name": "",
          "type": "string"
        }
      ],
      "stateMutability": "view",
      "type": "function"
    },
    {
      "inputs": [],
      "name": "totalSupply",
      "outputs": [
        {
          "internalType": "uint256",
          "name": "",
          "type": "uint256"
        }
      ],
      "stateMutability": "view",
      "type": "function"
    },
    {
      "inputs": [
        {
          "internalType": "address",
          "name": "from",
          "type": "address"
        },
        {
          "internalType": "address",
          "name": "to",
          "type": "address"
        },
        {
          "internalType": "uint256",
          "name": "tokenId",
          "type": "uint256"
        }
      ],
      "name": "transferFrom",
      "outputs": [],
      "stateMutability": "nonpayable",
      "type": "function"
    }
  ],
  "bytecode": "0x608060405260646009553480156200001657600080fd5b5060405162002b3c38038062002b3c83398181016040528101906200003c9190620001c1565b6040518060400160405280600a81526020017f426c6f78696d614e4654000000000000000000000000000000000000000000008152506040518060400160405280600481526020017f424c4f58000000000000000000000000000000000000000000000000000000008152508160009081620000b991906200046d565b508060019081620000cb91906200046d565b50505033600760006101000a81548173ffffffffffffffffffffffffffffffffffffffff021916908373ffffffffffffffffffffffffffffffffffffffff16021790555080600860006101000a81548173ffffffffffffffffffffffffffffffffffffffff021916908373ffffffffffffffffffffffffffffffffffffffff1602179055505062000554565b600080fd5b600073ffffffffffffffffffffffffffffffffffffffff82169050919050565b600062000189826200015c565b9050919050565b6200019b816200017c565b8114620001a757600080fd5b50565b600081519050620001bb8162000190565b92915050565b600060208284031215620001da57620001d962000157565b5b6000620001ea84828501620001aa565b91505092915050565b600081519050919050565b7f4e487b7100000000000000000000000000000000000000000000000000000000600052604160045260246000fd5b7f4e487b7100000000000000000000000000000000000000000000000000000000600052602260045260246000fd5b600060028204905060018216806200027557607f821691505b6020821081036200028b576200028a6200022d565b5b50919050565b60008190508160005260206000209050919050565b60006020601f8301049050919050565b600082821b905092915050565b600060088302620002f57fffffffffffffffffffffffffffffffffffffffffffffffffffffffffffffffff82620002b6565b620003018683620002b6565b95508019841693508086168417925050509392505050565b6000819050919050565b6000819050919050565b60006200034e62000348620003428462000319565b62000323565b62000319565b9050919050565b6000819050919050565b6200036a836200032d565b62000382620003798262000355565b848454620002c3565b825550505050565b600090565b620003996200038a565b620003a68184846200035f565b505050565b5b81811015620003ce57620003c26000826200038f565b600181019050620003ac565b5050565b601f8211156200041d57620003e78162000291565b620003f284620002a6565b8101602085101562000402578190505b6200041a6200041185620002a6565b830182620003ab565b50505b505050565b600082821c905092915050565b6000620004426000198460080262000422565b1980831691505092915050565b60006200045d83836200042f565b9150826002028217905092915050565b6200047882620001f3565b67ffffffffffffffff811115620004945762000493620001fe565b5b620004a082546200025c565b620004ad828285620003d2565b600060209050601f831160018114620004e55760008415620004d0578287015190505b620004dc85826200044f565b8655506200054c565b601f198416620004f58662000291565b60005b828110156200051f57848901518255600182019150602085019450602081019050620004f8565b868310156200053f57848901516200053b601f8916826200042f565b8355505b6001600288020188555050505b505050505050565b6125d880620005646000396000f3fe608060405234801561001057600080fd5b50600436106101375760003560e01c80638da5cb5b116100b8578063d082e3811161007c578063d082e3811461033a578063d4a6dfc114610358578063d5abeb0114610374578063e28cb25a14610392578063e985e9c5146103c2578063febfd229146103f257610137565b80638da5cb5b1461029657806395d89b41146102b4578063a22cb465146102d2578063b88d4fde146102ee578063c87b56dd1461030a57610137565b806318160ddd116100ff57806318160ddd146101e057806323b872dd146101fe57806342842e0e1461021a5780636352211e1461023657806370a082311461026657610137565b806301ffc9a71461013c57806306fdde031461016c578063081812fc1461018a578063095ea7b3146101ba57806314f710fe146101d6575b600080fd5b61015660048036038101906101519190611a83565b610410565b6040516101639190611acb565b60405180910390f35b6101746104f2565b6040516101819190611b76565b60405180910390f35b6101a4600480360381019061019f9190611bce565b610584565b6040516101b19190611c3c565b60405180910390f35b6101d460048036038101906101cf9190611c83565b6105a0565b005b6101de6105b6565b005b6101e86107e5565b6040516101f59190611cd2565b60405180910390f35b61021860048036038101906102139190611ced565b6107ef565b005b610234600480360381019061022f9190611ced565b6108f1565b005b610250600480360381019061024b9190611bce565b610911565b60405161025d9190611c3c565b60405180910390f35b610280600480360381019061027b9190611d40565b610923565b60405161028d9190611cd2565b60405180910390f35b61029e6109dd565b6040516102ab9190611c3c565b60405180910390f35b6102bc610a03565b6040516102c99190611b76565b60405180910390f35b6102ec60048036038101906102e79190611d99565b610a95565b005b61030860048036038101906103039190611f0e565b610aab565b005b610324600480360381019061031f9190611bce565b610ac8565b6040516103319190611b76565b60405180910390f35b610342610af9565b60405161034f9190611cd2565b60405180910390f35b610372600480360381019061036d9190611d40565b610aff565b005b61037c610bd3565b6040516103899190611cd2565b60405180910390f35b6103ac60048036038101906103a79190611d40565b610bd9565b6040516103b99190611acb565b60405180910390f35b6103dc60048036038101906103d79190611f91565b610bf9565b6040516103e99190611acb565b60405180910390f35b6103fa610c8d565b6040516104079190612030565b60405180910390f35b60007f80ac58cd000000000000000000000000000000000000000000000000000000007bffffffffffffffffffffffffffffffffffffffffffffffffffffffff1916827bffffffffffffffffffffffffffffffffffffffffffffffffffffffff191614806104db57507f5b5e139f000000000000000000000000000000000000000000000000000000007bffffffffffffffffffffffffffffffffffffffffffffffffffffffff1916827bffffffffffffffffffffffffffffffffffffffffffffffffffffffff1916145b806104eb57506104ea82610cb3565b5b9050919050565b6060600080546105019061207a565b80601f016020809104026020016040519081016040528092919081815260200182805461052d9061207a565b801561057a5780601f1061054f5761010080835404028352916020019161057a565b820191906000526020600020905b81548152906001019060200180831161055d57829003601f168201915b5050505050905090565b600061058f82610d1d565b5061059982610da5565b9050919050565b6105b282826105ad610de2565b610dea565b5050565b6000600860009054906101000a900473ffffffffffffffffffffffffffffffffffffffff1673ffffffffffffffffffffffffffffffffffffffff166370a08231336040518263ffffffff1660e01b81526004016106139190611c3c565b602060405180830381865afa158015610630573d6000803e3d6000fd5b505050506040513d601f19601f8201168201806040525081019061065491906120c0565b11610694576040517f08c379a000000000000000000000000000000000000000000000000000000000815260040161068b90612139565b60405180910390fd5b600a60003373ffffffffffffffffffffffffffffffffffffffff1673ffffffffffffffffffffffffffffffffffffffff16815260200190815260200160002060009054906101000a900460ff1615610721576040517f08c379a0000000000000000000000000000000000000000000000000000000008152600401610718906121cb565b60405180910390fd5b60095460065410610767576040517f08c379a000000000000000000000000000000000000000000000000000000000815260040161075e90612237565b60405180910390fd5b6006600081548092919061077a90612286565b919050555061078b33600654610dfc565b6001600a60003373ffffffffffffffffffffffffffffffffffffffff1673ffffffffffffffffffffffffffffffffffffffff16815260200190815260200160002060006101000a81548160ff021916908315150217905550565b6000600954905090565b600073ffffffffffffffffffffffffffffffffffffffff168273ffffffffffffffffffffffffffffffffffffffff16036108615760006040517f64a0ae920000000000000000000000000000000000000000000000000000000081526004016108589190611c3c565b60405180910390fd5b60006108758383610870610de2565b610e1a565b90508373ffffffffffffffffffffffffffffffffffffffff168173ffffffffffffffffffffffffffffffffffffffff16146108eb578382826040517f64283d7b0000000000000000000000000000000000000000000000000000000081526004016108e2939291906122ce565b60405180910390fd5b50505050565b61090c83838360405180602001604052806000815250610aab565b505050565b600061091c82610d1d565b9050919050565b60008073ffffffffffffffffffffffffffffffffffffffff168273ffffffffffffffffffffffffffffffffffffffff16036109965760006040517f89c62b6400000000000000000000000000000000000000000000000000000000815260040161098d9190611c3c565b60405180910390fd5b600360008373ffffffffffffffffffffffffffffffffffffffff1673ffffffffffffffffffffffffffffffffffffffff168152602001908152602001600020549050919050565b600760009054906101000a900473ffffffffffffffffffffffffffffffffffffffff1681565b606060018054610a129061207a565b80601f0160208091040260200160405190810160405280929190818152602001828054610a3e9061207a565b8015610a8b5780601f10610a6057610100808354040283529160200191610a8b565b820191906000526020600020905b815481529060010190602001808311610a6e57829003601f168201915b5050505050905090565b610aa7610aa0610de2565b8383611034565b5050565b610ab68484846107ef565b610ac2848484846111a3565b50505050565b6060610ad38261135a565b604051602001610ae391906123b3565b6040516020818303038152906040529050919050565b60065481565b600760009054906101000a900473ffffffffffffffffffffffffffffffffffffffff1673ffffffffffffffffffffffffffffffffffffffff163373ffffffffffffffffffffffffffffffffffffffff1614610b8f576040517f08c379a0000000000000000000000000000000000000000000000000000000008152600401610b8690612447565b60405180910390fd5b80600860006101000a81548173ffffffffffffffffffffffffffffffffffffffff021916908373ffffffffffffffffffffffffffffffffffffffff16021790555050565b60095481565b600a6020528060005260406000206000915054906101000a900460ff1681565b6000600560008473ffffffffffffffffffffffffffffffffffffffff1673ffffffffffffffffffffffffffffffffffffffff16815260200190815260200160002060008373ffffffffffffffffffffffffffffffffffffffff1673ffffffffffffffffffffffffffffffffffffffff16815260200190815260200160002060009054906101000a900460ff16905092915050565b600860009054906101000a900473ffffffffffffffffffffffffffffffffffffffff1681565b60007f01ffc9a7000000000000000000000000000000000000000000000000000000007bffffffffffffffffffffffffffffffffffffffffffffffffffffffff1916827bffffffffffffffffffffffffffffffffffffffffffffffffffffffff1916149050919050565b600080610d2983611428565b9050600073ffffffffffffffffffffffffffffffffffffffff168173ffffffffffffffffffffffffffffffffffffffff1603610d9c57826040517f7e273289000000000000000000000000000000000000000000000000000000008152600401610d939190611cd2565b60405180910390fd5b80915050919050565b60006004600083815260200190815260200160002060009054906101000a900473ffffffffffffffffffffffffffffffffffffffff169050919050565b600033905090565b610df78383836001611465565b505050565b610e1682826040518060200160405280600081525061162a565b5050565b600080610e2684611428565b9050600073ffffffffffffffffffffffffffffffffffffffff168373ffffffffffffffffffffffffffffffffffffffff1614610e6857610e67818486611646565b5b600073ffffffffffffffffffffffffffffffffffffffff168173ffffffffffffffffffffffffffffffffffffffff1614610ef957610eaa600085600080611465565b6001600360008373ffffffffffffffffffffffffffffffffffffffff1673ffffffffffffffffffffffffffffffffffffffff168152602001908152602001600020600082825403925050819055505b600073ffffffffffffffffffffffffffffffffffffffff168573ffffffffffffffffffffffffffffffffffffffff1614610f7c576001600360008773ffffffffffffffffffffffffffffffffffffffff1673ffffffffffffffffffffffffffffffffffffffff168152602001908152602001600020600082825401925050819055505b846002600086815260200190815260200160002060006101000a81548173ffffffffffffffffffffffffffffffffffffffff021916908373ffffffffffffffffffffffffffffffffffffffff160217905550838573ffffffffffffffffffffffffffffffffffffffff168273ffffffffffffffffffffffffffffffffffffffff167fddf252ad1be2c89b69c2b068fc378daa952ba7f163c4a11628f55a4df523b3ef60405160405180910390a4809150509392505050565b600073ffffffffffffffffffffffffffffffffffffffff168273ffffffffffffffffffffffffffffffffffffffff16036110a557816040517f5b08ba1800000000000000000000000000000000000000000000000000000000815260040161109c9190611c3c565b60405180910390fd5b80600560008573ffffffffffffffffffffffffffffffffffffffff1673ffffffffffffffffffffffffffffffffffffffff16815260200190815260200160002060008473ffffffffffffffffffffffffffffffffffffffff1673ffffffffffffffffffffffffffffffffffffffff16815260200190815260200160002060006101000a81548160ff0219169083151502179055508173ffffffffffffffffffffffffffffffffffffffff168373ffffffffffffffffffffffffffffffffffffffff167f17307eab39ab6107e8899845ad3d59bd9653f200f220920489ca2b5937696c31836040516111969190611acb565b60405180910390a3505050565b60008373ffffffffffffffffffffffffffffffffffffffff163b1115611354578273ffffffffffffffffffffffffffffffffffffffff1663150b7a026111e7610de2565b8685856040518563ffffffff1660e01b815260040161120994939291906124bc565b6020604051808303816000875af192505050801561124557506040513d601f19601f82011682018060405250810190611242919061251d565b60015b6112c9573d8060008114611275576040519150601f19603f3d011682016040523d82523d6000602084013e61127a565b606091505b5060008151036112c157836040517f64a0ae920000000000000000000000000000000000000000000000000000000081526004016112b89190611c3c565b60405180910390fd5b805181602001fd5b63150b7a0260e01b7bffffffffffffffffffffffffffffffffffffffffffffffffffffffff1916817bffffffffffffffffffffffffffffffffffffffffffffffffffffffff19161461135257836040517f64a0ae920000000000000000000000000000000000000000000000000000000081526004016113499190611c3c565b60405180910390fd5b505b50505050565b6060600060016113698461170a565b01905060008167ffffffffffffffff81111561138857611387611de3565b5b6040519080825280601f01601f1916602001820160405280156113ba5781602001600182028036833780820191505090505b509050600082602001820190505b60011561141d578080600190039150507f3031323334353637383961626364656600000000000000000000000000000000600a86061a8153600a85816114115761141061254a565b5b049450600085036113c8575b819350505050919050565b60006002600083815260200190815260200160002060009054906101000a900473ffffffffffffffffffffffffffffffffffffffff169050919050565b808061149e5750600073ffffffffffffffffffffffffffffffffffffffff168273ffffffffffffffffffffffffffffffffffffffff1614155b156115d25760006114ae84610d1d565b9050600073ffffffffffffffffffffffffffffffffffffffff168373ffffffffffffffffffffffffffffffffffffffff161415801561151957508273ffffffffffffffffffffffffffffffffffffffff168173ffffffffffffffffffffffffffffffffffffffff1614155b801561152c575061152a8184610bf9565b155b1561156e57826040517fa9fbf51f0000000000000000000000000000000000000000000000000000000081526004016115659190611c3c565b60405180910390fd5b81156115d057838573ffffffffffffffffffffffffffffffffffffffff168273ffffffffffffffffffffffffffffffffffffffff167f8c5be1e5ebec7d5bd14f71427d1e84f3dd0314c0f7b2291e5b200ac8c7c3b92560405160405180910390a45b505b836004600085815260200190815260200160002060006101000a81548173ffffffffffffffffffffffffffffffffffffffff021916908373ffffffffffffffffffffffffffffffffffffffff16021790555050505050565b611634838361185d565b61164160008484846111a3565b505050565b611651838383611956565b61170557600073ffffffffffffffffffffffffffffffffffffffff168373ffffffffffffffffffffffffffffffffffffffff16036116c657806040517f7e2732890000000000000000000000000000000000000000000000000000000081526004016116bd9190611cd2565b60405180910390fd5b81816040517f177e802f0000000000000000000000000000000000000000000000000000000081526004016116fc929190612579565b60405180910390fd5b505050565b600080600090507a184f03e93ff9f4daa797ed6e38ed64bf6a1f0100000000000000008310611768577a184f03e93ff9f4daa797ed6e38ed64bf6a1f010000000000000000838161175e5761175d61254a565b5b0492506040810190505b6d04ee2d6d415b85acef810000000083106117a5576d04ee2d6d415b85acef8100000000838161179b5761179a61254a565b5b0492506020810190505b662386f26fc1000083106117d457662386f26fc1000083816117ca576117c961254a565b5b0492506010810190505b6305f5e10083106117fd576305f5e10083816117f3576117f261254a565b5b0492506008810190505b61271083106118225761271083816118185761181761254a565b5b0492506004810190505b60648310611845576064838161183b5761183a61254a565b5b0492506002810190505b600a8310611854576001810190505b80915050919050565b600073ffffffffffffffffffffffffffffffffffffffff168273ffffffffffffffffffffffffffffffffffffffff16036118cf5760006040517f64a0ae920000000000000000000000000000000000000000000000000000000081526004016118c69190611c3c565b60405180910390fd5b60006118dd83836000610e1a565b9050600073ffffffffffffffffffffffffffffffffffffffff168173ffffffffffffffffffffffffffffffffffffffff16146119515760006040517f73c6ac6e0000000000000000000000000000000000000000000000000000000081526004016119489190611c3c565b60405180910390fd5b505050565b60008073ffffffffffffffffffffffffffffffffffffffff168373ffffffffffffffffffffffffffffffffffffffff1614158015611a0e57508273ffffffffffffffffffffffffffffffffffffffff168473ffffffffffffffffffffffffffffffffffffffff1614806119cf57506119ce8484610bf9565b5b80611a0d57508273ffffffffffffffffffffffffffffffffffffffff166119f583610da5565b73ffffffffffffffffffffffffffffffffffffffff16145b5b90509392505050565b6000604051905090565b600080fd5b600080fd5b60007fffffffff0000000000000000000000000000000000000000000000000000000082169050919050565b611a6081611a2b565b8114611a6b57600080fd5b50565b600081359050611a7d81611a57565b92915050565b600060208284031215611a9957611a98611a21565b5b6000611aa784828501611a6e565b91505092915050565b60008115159050919050565b611ac581611ab0565b82525050565b6000602082019050611ae06000830184611abc565b92915050565b600081519050919050565b600082825260208201905092915050565b60005b83811015611b20578082015181840152602081019050611b05565b60008484015250505050565b6000601f19601f8301169050919050565b6000611b4882611ae6565b611b528185611af1565b9350611b62818560208601611b02565b611b6b81611b2c565b840191505092915050565b60006020820190508181036000830152611b908184611b3d565b905092915050565b6000819050919050565b611bab81611b98565b8114611bb657600080fd5b50565b600081359050611bc881611ba2565b92915050565b600060208284031215611be457611be3611a21565b5b6000611bf284828501611bb9565b91505092915050565b600073ffffffffffffffffffffffffffffffffffffffff82169050919050565b6000611c2682611bfb565b9050919050565b611c3681611c1b565b82525050565b6000602082019050611c516000830184611c2d565b92915050565b611c6081611c1b565b8114611c6b57600080fd5b50565b600081359050611c7d81611c57565b92915050565b60008060408385031215611c9a57611c99611a21565b5b6000611ca885828601611c6e565b9250506020611cb985828601611bb9565b9150509250929050565b611ccc81611b98565b82525050565b6000602082019050611ce76000830184611cc3565b92915050565b600080600060608486031215611d0657611d05611a21565b5b6000611d1486828701611c6e565b9350506020611d2586828701611c6e565b9250506040611d3686828701611bb9565b9150509250925092565b600060208284031215611d5657611d55611a21565b5b6000611d6484828501611c6e565b91505092915050565b611d7681611ab0565b8114611d8157600080fd5b50565b600081359050611d9381611d6d565b92915050565b60008060408385031215611db057611daf611a21565b5b6000611dbe85828601611c6e565b9250506020611dcf85828601611d84565b9150509250929050565b600080fd5b600080fd5b7f4e487b7100000000000000000000000000000000000000000000000000000000600052604160045260246000fd5b611e1b82611b2c565b810181811067ffffffffffffffff82111715611e3a57611e39611de3565b5b80604052505050565b6000611e4d611a17565b9050611e598282611e12565b919050565b600067ffffffffffffffff821115611e7957611e78611de3565b5b611e8282611b2c565b9050602081019050919050565b82818337600083830152505050565b6000611eb1611eac84611e5e565b611e43565b905082815260208101848484011115611ecd57611ecc611dde565b5b611ed8848285611e8f565b509392505050565b600082601f830112611ef557611ef4611dd9565b5b8135611f05848260208601611e9e565b91505092915050565b60008060008060808587031215611f2857611f27611a21565b5b6000611f3687828801611c6e565b9450506020611f4787828801611c6e565b9350506040611f5887828801611bb9565b925050606085013567ffffffffffffffff811115611f7957611f78611a26565b5b611f8587828801611ee0565b91505092959194509250565b60008060408385031215611fa857611fa7611a21565b5b6000611fb685828601611c6e565b9250506020611fc785828601611c6e565b9150509250929050565b6000819050919050565b6000611ff6611ff1611fec84611bfb565b611fd1565b611bfb565b9050919050565b600061200882611fdb565b9050919050565b600061201a82611ffd565b9050919050565b61202a8161200f565b82525050565b60006020820190506120456000830184612021565b92915050565b7f4e487b7100000000000000000000000000000000000000000000000000000000600052602260045260246000fd5b6000600282049050600182168061209257607f821691505b6020821081036120a5576120a461204b565b5b50919050565b6000815190506120ba81611ba2565b92915050565b6000602082840312156120d6576120d5611a21565b5b60006120e4848285016120ab565b91505092915050565b7f596f7520617265206e6f7420612063616e646964617465000000000000000000600082015250565b6000612123601783611af1565b915061212e826120ed565b602082019050919050565b6000602082019050818103600083015261215281612116565b9050919050565b7f596f752063616e206f6e6c79206d696e74206f6e65204e46542070657220776160008201527f6c6c657400000000000000000000000000000000000000000000000000000000602082015250565b60006121b5602483611af1565b91506121c082612159565b604082019050919050565b600060208201905081810360008301526121e4816121a8565b9050919050565b7f4d617820737570706c7920726561636865640000000000000000000000000000600082015250565b6000612221601283611af1565b915061222c826121eb565b602082019050919050565b6000602082019050818103600083015261225081612214565b9050919050565b7f4e487b7100000000000000000000000000000000000000000000000000000000600052601160045260246000fd5b600061229182611b98565b91507fffffffffffffffffffffffffffffffffffffffffffffffffffffffffffffffff82036122c3576122c2612257565b5b600182019050919050565b60006060820190506122e36000830186611c2d565b6122f06020830185611cc3565b6122fd6040830184611c2d565b949350505050565b600081905092915050565b7f697066732e696f2f697066732f516d65536a53696e4870506e6d586d73704d6a60008201527f776958794e367a533445397a63636172694752336a7863615774712f00000000602082015250565b600061236c603c83612305565b915061237782612310565b603c82019050919050565b600061238d82611ae6565b6123978185612305565b93506123a7818560208601611b02565b80840191505092915050565b60006123be8261235f565b91506123ca8284612382565b915081905092915050565b7f4f6e6c79206f776e65722063616e207365742063616e646964617465204e465460008201527f20636f6e74726163740000000000000000000000000000000000000000000000602082015250565b6000612431602983611af1565b915061243c826123d5565b604082019050919050565b6000602082019050818103600083015261246081612424565b9050919050565b600081519050919050565b600082825260208201905092915050565b600061248e82612467565b6124988185612472565b93506124a8818560208601611b02565b6124b181611b2c565b840191505092915050565b60006080820190506124d16000830187611c2d565b6124de6020830186611c2d565b6124eb6040830185611cc3565b81810360608301526124fd8184612483565b905095945050505050565b60008151905061251781611a57565b92915050565b60006020828403121561253357612532611a21565b5b600061254184828501612508565b91505092915050565b7f4e487b7100000000000000000000000000000000000000000000000000000000600052601260045260246000fd5b600060408201905061258e6000830185611c2d565b61259b6020830184611cc3565b939250505056fea2646970667358221220e2c9caaec9d3f7eea825fae5876b9535042eac60ed57667e2e62423a23bada5264736f6c63430008180033",
  "linkReferences": {},
  "deployedLinkReferences": {}
}