{
  "_format": "hh-sol-artifact-1",
  "contractName": "BloximaCandidateNFT",
  "sourceName": "contracts/BloximaCandidateNFT.sol",
  "abi": [
    {
      "inputs": [],
      "stateMutability": "nonpayable",
      "type": "constructor"
    },
    {
      "inputs": [
        {
          "internalType": "address",
          "name": "sender",
          "type": "address"
        },
        {
          "internalType": "uint256",
          "name": "tokenId",
          "type": "uint256"
        },
        {
          "internalType": "address",
          "name": "owner",
          "type": "address"
        }
      ],
      "name": "ERC721IncorrectOwner",
      "type": "error"
    },
    {
      "inputs": [
        {
          "internalType": "address",
          "name": "operator",
          "type": "address"
        },
        {
          "internalType": "uint256",
          "name": "tokenId",
          "type": "uint256"
        }
      ],
      "name": "ERC721InsufficientApproval",
      "type": "error"
    },
    {
      "inputs": [
        {
          "internalType": "address",
          "name": "approver",
          "type": "address"
        }
      ],
      "name": "ERC721InvalidApprover",
      "type": "error"
    },
    {
      "inputs": [
        {
          "internalType": "address",
          "name": "operator",
          "type": "address"
        }
      ],
      "name": "ERC721InvalidOperator",
      "type": "error"
    },
    {
      "inputs": [
        {
          "internalType": "address",
          "name": "owner",
          "type": "address"
        }
      ],
      "name": "ERC721InvalidOwner",
      "type": "error"
    },
    {
      "inputs": [
        {
          "internalType": "address",
          "name": "receiver",
          "type": "address"
        }
      ],
      "name": "ERC721InvalidReceiver",
      "type": "error"
    },
    {
      "inputs": [
        {
          "internalType": "address",
          "name": "sender",
          "type": "address"
        }
      ],
      "name": "ERC721InvalidSender",
      "type": "error"
    },
    {
      "inputs": [
        {
          "internalType": "uint256",
          "name": "tokenId",
          "type": "uint256"
        }
      ],
      "name": "ERC721NonexistentToken",
      "type": "error"
    },
    {
      "anonymous": false,
      "inputs": [
        {
          "indexed": true,
          "internalType": "address",
          "name": "owner",
          "type": "address"
        },
        {
          "indexed": true,
          "internalType": "address",
          "name": "approved",
          "type": "address"
        },
        {
          "indexed": true,
          "internalType": "uint256",
          "name": "tokenId",
          "type": "uint256"
        }
      ],
      "name": "Approval",
      "type": "event"
    },
    {
      "anonymous": false,
      "inputs": [
        {
          "indexed": true,
          "internalType": "address",
          "name": "owner",
          "type": "address"
        },
        {
          "indexed": true,
          "internalType": "address",
          "name": "operator",
          "type": "address"
        },
        {
          "indexed": false,
          "internalType": "bool",
          "name": "approved",
          "type": "bool"
        }
      ],
      "name": "ApprovalForAll",
      "type": "event"
    },
    {
      "anonymous": false,
      "inputs": [
        {
          "indexed": true,
          "internalType": "address",
          "name": "from",
          "type": "address"
        },
        {
          "indexed": true,
          "internalType": "address",
          "name": "to",
          "type": "address"
        },
        {
          "indexed": true,
          "internalType": "uint256",
          "name": "tokenId",
          "type": "uint256"
        }
      ],
      "name": "Transfer",
      "type": "event"
    },
    {
      "inputs": [
        {
          "internalType": "address",
          "name": "to",
          "type": "address"
        },
        {
          "internalType": "uint256",
          "name": "tokenId",
          "type": "uint256"
        }
      ],
      "name": "approve",
      "outputs": [],
      "stateMutability": "nonpayable",
      "type": "function"
    },
    {
      "inputs": [
        {
          "internalType": "address",
          "name": "owner",
          "type": "address"
        }
      ],
      "name": "balanceOf",
      "outputs": [
        {
          "internalType": "uint256",
          "name": "",
          "type": "uint256"
        }
      ],
      "stateMutability": "view",
      "type": "function"
    },
    {
      "inputs": [],
      "name": "baseURI",
      "outputs": [
        {
          "internalType": "string",
          "name": "",
          "type": "string"
        }
      ],
      "stateMutability": "view",
      "type": "function"
    },
    {
      "inputs": [
        {
          "internalType": "uint256",
          "name": "tokenId",
          "type": "uint256"
        }
      ],
      "name": "getApproved",
      "outputs": [
        {
          "internalType": "address",
          "name": "",
          "type": "address"
        }
      ],
      "stateMutability": "view",
      "type": "function"
    },
    {
      "inputs": [
        {
          "internalType": "address",
          "name": "",
          "type": "address"
        }
      ],
      "name": "hasMintedNFT",
      "outputs": [
        {
          "internalType": "bool",
          "name": "",
          "type": "bool"
        }
      ],
      "stateMutability": "view",
      "type": "function"
    },
    {
      "inputs": [
        {
          "internalType": "address",
          "name": "owner",
          "type": "address"
        },
        {
          "internalType": "address",
          "name": "operator",
          "type": "address"
        }
      ],
      "name": "isApprovedForAll",
      "outputs": [
        {
          "internalType": "bool",
          "name": "",
          "type": "bool"
        }
      ],
      "stateMutability": "view",
      "type": "function"
    },
    {
      "inputs": [],
      "name": "mintNFT",
      "outputs": [],
      "stateMutability": "nonpayable",
      "type": "function"
    },
    {
      "inputs": [],
      "name": "name",
      "outputs": [
        {
          "internalType": "string",
          "name": "",
          "type": "string"
        }
      ],
      "stateMutability": "view",
      "type": "function"
    },
    {
      "inputs": [],
      "name": "owner",
      "outputs": [
        {
          "internalType": "address",
          "name": "",
          "type": "address"
        }
      ],
      "stateMutability": "view",
      "type": "function"
    },
    {
      "inputs": [
        {
          "internalType": "uint256",
          "name": "tokenId",
          "type": "uint256"
        }
      ],
      "name": "ownerOf",
      "outputs": [
        {
          "internalType": "address",
          "name": "",
          "type": "address"
        }
      ],
      "stateMutability": "view",
      "type": "function"
    },
    {
      "inputs": [
        {
          "internalType": "address",
          "name": "from",
          "type": "address"
        },
        {
          "internalType": "address",
          "name": "to",
          "type": "address"
        },
        {
          "internalType": "uint256",
          "name": "tokenId",
          "type": "uint256"
        }
      ],
      "name": "safeTransferFrom",
      "outputs": [],
      "stateMutability": "nonpayable",
      "type": "function"
    },
    {
      "inputs": [
        {
          "internalType": "address",
          "name": "from",
          "type": "address"
        },
        {
          "internalType": "address",
          "name": "to",
          "type": "address"
        },
        {
          "internalType": "uint256",
          "name": "tokenId",
          "type": "uint256"
        },
        {
          "internalType": "bytes",
          "name": "data",
          "type": "bytes"
        }
      ],
      "name": "safeTransferFrom",
      "outputs": [],
      "stateMutability": "nonpayable",
      "type": "function"
    },
    {
      "inputs": [
        {
          "internalType": "address",
          "name": "operator",
          "type": "address"
        },
        {
          "internalType": "bool",
          "name": "approved",
          "type": "bool"
        }
      ],
      "name": "setApprovalForAll",
      "outputs": [],
      "stateMutability": "nonpayable",
      "type": "function"
    },
    {
      "inputs": [
        {
          "internalType": "string",
          "name": "_baseURIString",
          "type": "string"
        }
      ],
      "name": "setBaseURI",
      "outputs": [],
      "stateMutability": "nonpayable",
      "type": "function"
    },
    {
      "inputs": [
        {
          "internalType": "bytes4",
          "name": "interfaceId",
          "type": "bytes4"
        }
      ],
      "name": "supportsInterface",
      "outputs": [
        {
          "internalType": "bool",
          "name": "",
          "type": "bool"
        }
      ],
      "stateMutability": "view",
      "type": "function"
    },
    {
      "inputs": [],
      "name": "symbol",
      "outputs": [
        {
          "internalType": "string",
          "name": "",
          "type": "string"
        }
      ],
      "stateMutability": "view",
      "type": "function"
    },
    {
      "inputs": [],
      "name": "tokenCounter",
      "outputs": [
        {
          "internalType": "uint256",
          "name": "",
          "type": "uint256"
        }
      ],
      "stateMutability": "view",
      "type": "function"
    },
    {
      "inputs": [
        {
          "internalType": "uint256",
          "name": "_tokenId",
          "type": "uint256"
        }
      ],
      "name": "tokenURI",
      "outputs": [
        {
          "internalType": "string",
          "name": "",
          "type": "string"
        }
      ],
      "stateMutability": "view",
      "type": "function"
    },
    {
      "inputs": [
        {
          "internalType": "address",
          "name": "from",
          "type": "address"
        },
        {
          "internalType": "address",
          "name": "to",
          "type": "address"
        },
        {
          "internalType": "uint256",
          "name": "tokenId",
          "type": "uint256"
        }
      ],
      "name": "transferFrom",
      "outputs": [],
      "stateMutability": "nonpayable",
      "type": "function"
    }
  ],
  "bytecode": "0x60806040526040518060600160405280603d8152602001620027d2603d9139600890816200002e919062000398565b503480156200003c57600080fd5b506040518060400160405280601381526020017f426c6f78696d6143616e6469646174654e4654000000000000000000000000008152506040518060400160405280600581526020017f42434e46540000000000000000000000000000000000000000000000000000008152508160009081620000ba919062000398565b508060019081620000cc919062000398565b505050600060068190555033600760006101000a81548173ffffffffffffffffffffffffffffffffffffffff021916908373ffffffffffffffffffffffffffffffffffffffff1602179055506200047f565b600081519050919050565b7f4e487b7100000000000000000000000000000000000000000000000000000000600052604160045260246000fd5b7f4e487b7100000000000000000000000000000000000000000000000000000000600052602260045260246000fd5b60006002820490506001821680620001a057607f821691505b602082108103620001b657620001b562000158565b5b50919050565b60008190508160005260206000209050919050565b60006020601f8301049050919050565b600082821b905092915050565b600060088302620002207fffffffffffffffffffffffffffffffffffffffffffffffffffffffffffffffff82620001e1565b6200022c8683620001e1565b95508019841693508086168417925050509392505050565b6000819050919050565b6000819050919050565b600062000279620002736200026d8462000244565b6200024e565b62000244565b9050919050565b6000819050919050565b620002958362000258565b620002ad620002a48262000280565b848454620001ee565b825550505050565b600090565b620002c4620002b5565b620002d18184846200028a565b505050565b5b81811015620002f957620002ed600082620002ba565b600181019050620002d7565b5050565b601f82111562000348576200031281620001bc565b6200031d84620001d1565b810160208510156200032d578190505b620003456200033c85620001d1565b830182620002d6565b50505b505050565b600082821c905092915050565b60006200036d600019846008026200034d565b1980831691505092915050565b60006200038883836200035a565b9150826002028217905092915050565b620003a3826200011e565b67ffffffffffffffff811115620003bf57620003be62000129565b5b620003cb825462000187565b620003d8828285620002fd565b600060209050601f831160018114620004105760008415620003fb578287015190505b6200040785826200037a565b86555062000477565b601f1984166200042086620001bc565b60005b828110156200044a5784890151825560018201915060208501945060208101905062000423565b868310156200046a578489015162000466601f8916826200035a565b8355505b6001600288020188555050505b505050505050565b612343806200048f6000396000f3fe608060405234801561001057600080fd5b50600436106101215760003560e01c80636c0360eb116100ad578063b88d4fde11610071578063b88d4fde146102f4578063c87b56dd14610310578063d082e38114610340578063e28cb25a1461035e578063e985e9c51461038e57610121565b80636c0360eb1461024e57806370a082311461026c5780638da5cb5b1461029c57806395d89b41146102ba578063a22cb465146102d857610121565b806314f710fe116100f457806314f710fe146101c057806323b872dd146101ca57806342842e0e146101e657806355f804b3146102025780636352211e1461021e57610121565b806301ffc9a71461012657806306fdde0314610156578063081812fc14610174578063095ea7b3146101a4575b600080fd5b610140600480360381019061013b9190611704565b6103be565b60405161014d919061174c565b60405180910390f35b61015e6104a0565b60405161016b91906117f7565b60405180910390f35b61018e6004803603810190610189919061184f565b610532565b60405161019b91906118bd565b60405180910390f35b6101be60048036038101906101b99190611904565b61054e565b005b6101c8610564565b005b6101e460048036038101906101df9190611944565b61066f565b005b61020060048036038101906101fb9190611944565b610771565b005b61021c60048036038101906102179190611acc565b610791565b005b6102386004803603810190610233919061184f565b610834565b60405161024591906118bd565b60405180910390f35b610256610846565b60405161026391906117f7565b60405180910390f35b61028660048036038101906102819190611b15565b6108d4565b6040516102939190611b51565b60405180910390f35b6102a461098e565b6040516102b191906118bd565b60405180910390f35b6102c26109b4565b6040516102cf91906117f7565b60405180910390f35b6102f260048036038101906102ed9190611b98565b610a46565b005b61030e60048036038101906103099190611c79565b610a5c565b005b61032a6004803603810190610325919061184f565b610a79565b60405161033791906117f7565b60405180910390f35b610348610a9b565b6040516103559190611b51565b60405180910390f35b61037860048036038101906103739190611b15565b610aa1565b604051610385919061174c565b60405180910390f35b6103a860048036038101906103a39190611cfc565b610ac1565b6040516103b5919061174c565b60405180910390f35b60007f80ac58cd000000000000000000000000000000000000000000000000000000007bffffffffffffffffffffffffffffffffffffffffffffffffffffffff1916827bffffffffffffffffffffffffffffffffffffffffffffffffffffffff1916148061048957507f5b5e139f000000000000000000000000000000000000000000000000000000007bffffffffffffffffffffffffffffffffffffffffffffffffffffffff1916827bffffffffffffffffffffffffffffffffffffffffffffffffffffffff1916145b80610499575061049882610b55565b5b9050919050565b6060600080546104af90611d6b565b80601f01602080910402602001604051908101604052809291908181526020018280546104db90611d6b565b80156105285780601f106104fd57610100808354040283529160200191610528565b820191906000526020600020905b81548152906001019060200180831161050b57829003601f168201915b5050505050905090565b600061053d82610bbf565b5061054782610c47565b9050919050565b610560828261055b610c84565b610c8c565b5050565b600960003373ffffffffffffffffffffffffffffffffffffffff1673ffffffffffffffffffffffffffffffffffffffff16815260200190815260200160002060009054906101000a900460ff16156105f1576040517f08c379a00000000000000000000000000000000000000000000000000000000081526004016105e890611e0e565b60405180910390fd5b6105fd33600654610c9e565b6006600081548092919061061090611e5d565b91905055506001600960003373ffffffffffffffffffffffffffffffffffffffff1673ffffffffffffffffffffffffffffffffffffffff16815260200190815260200160002060006101000a81548160ff021916908315150217905550565b600073ffffffffffffffffffffffffffffffffffffffff168273ffffffffffffffffffffffffffffffffffffffff16036106e15760006040517f64a0ae920000000000000000000000000000000000000000000000000000000081526004016106d891906118bd565b60405180910390fd5b60006106f583836106f0610c84565b610cbc565b90508373ffffffffffffffffffffffffffffffffffffffff168173ffffffffffffffffffffffffffffffffffffffff161461076b578382826040517f64283d7b00000000000000000000000000000000000000000000000000000000815260040161076293929190611ea5565b60405180910390fd5b50505050565b61078c83838360405180602001604052806000815250610a5c565b505050565b600760009054906101000a900473ffffffffffffffffffffffffffffffffffffffff1673ffffffffffffffffffffffffffffffffffffffff163373ffffffffffffffffffffffffffffffffffffffff1614610821576040517f08c379a000000000000000000000000000000000000000000000000000000000815260040161081890611f28565b60405180910390fd5b806008908161083091906120f4565b5050565b600061083f82610bbf565b9050919050565b6008805461085390611d6b565b80601f016020809104026020016040519081016040528092919081815260200182805461087f90611d6b565b80156108cc5780601f106108a1576101008083540402835291602001916108cc565b820191906000526020600020905b8154815290600101906020018083116108af57829003601f168201915b505050505081565b60008073ffffffffffffffffffffffffffffffffffffffff168273ffffffffffffffffffffffffffffffffffffffff16036109475760006040517f89c62b6400000000000000000000000000000000000000000000000000000000815260040161093e91906118bd565b60405180910390fd5b600360008373ffffffffffffffffffffffffffffffffffffffff1673ffffffffffffffffffffffffffffffffffffffff168152602001908152602001600020549050919050565b600760009054906101000a900473ffffffffffffffffffffffffffffffffffffffff1681565b6060600180546109c390611d6b565b80601f01602080910402602001604051908101604052809291908181526020018280546109ef90611d6b565b8015610a3c5780601f10610a1157610100808354040283529160200191610a3c565b820191906000526020600020905b815481529060010190602001808311610a1f57829003601f168201915b5050505050905090565b610a58610a51610c84565b8383610ed6565b5050565b610a6784848461066f565b610a7384848484611045565b50505050565b60606040518060600160405280603b81526020016122d3603b91399050919050565b60065481565b60096020528060005260406000206000915054906101000a900460ff1681565b6000600560008473ffffffffffffffffffffffffffffffffffffffff1673ffffffffffffffffffffffffffffffffffffffff16815260200190815260200160002060008373ffffffffffffffffffffffffffffffffffffffff1673ffffffffffffffffffffffffffffffffffffffff16815260200190815260200160002060009054906101000a900460ff16905092915050565b60007f01ffc9a7000000000000000000000000000000000000000000000000000000007bffffffffffffffffffffffffffffffffffffffffffffffffffffffff1916827bffffffffffffffffffffffffffffffffffffffffffffffffffffffff1916149050919050565b600080610bcb836111fc565b9050600073ffffffffffffffffffffffffffffffffffffffff168173ffffffffffffffffffffffffffffffffffffffff1603610c3e57826040517f7e273289000000000000000000000000000000000000000000000000000000008152600401610c359190611b51565b60405180910390fd5b80915050919050565b60006004600083815260200190815260200160002060009054906101000a900473ffffffffffffffffffffffffffffffffffffffff169050919050565b600033905090565b610c998383836001611239565b505050565b610cb88282604051806020016040528060008152506113fe565b5050565b600080610cc8846111fc565b9050600073ffffffffffffffffffffffffffffffffffffffff168373ffffffffffffffffffffffffffffffffffffffff1614610d0a57610d0981848661141a565b5b600073ffffffffffffffffffffffffffffffffffffffff168173ffffffffffffffffffffffffffffffffffffffff1614610d9b57610d4c600085600080611239565b6001600360008373ffffffffffffffffffffffffffffffffffffffff1673ffffffffffffffffffffffffffffffffffffffff168152602001908152602001600020600082825403925050819055505b600073ffffffffffffffffffffffffffffffffffffffff168573ffffffffffffffffffffffffffffffffffffffff1614610e1e576001600360008773ffffffffffffffffffffffffffffffffffffffff1673ffffffffffffffffffffffffffffffffffffffff168152602001908152602001600020600082825401925050819055505b846002600086815260200190815260200160002060006101000a81548173ffffffffffffffffffffffffffffffffffffffff021916908373ffffffffffffffffffffffffffffffffffffffff160217905550838573ffffffffffffffffffffffffffffffffffffffff168273ffffffffffffffffffffffffffffffffffffffff167fddf252ad1be2c89b69c2b068fc378daa952ba7f163c4a11628f55a4df523b3ef60405160405180910390a4809150509392505050565b600073ffffffffffffffffffffffffffffffffffffffff168273ffffffffffffffffffffffffffffffffffffffff1603610f4757816040517f5b08ba18000000000000000000000000000000000000000000000000000000008152600401610f3e91906118bd565b60405180910390fd5b80600560008573ffffffffffffffffffffffffffffffffffffffff1673ffffffffffffffffffffffffffffffffffffffff16815260200190815260200160002060008473ffffffffffffffffffffffffffffffffffffffff1673ffffffffffffffffffffffffffffffffffffffff16815260200190815260200160002060006101000a81548160ff0219169083151502179055508173ffffffffffffffffffffffffffffffffffffffff168373ffffffffffffffffffffffffffffffffffffffff167f17307eab39ab6107e8899845ad3d59bd9653f200f220920489ca2b5937696c3183604051611038919061174c565b60405180910390a3505050565b60008373ffffffffffffffffffffffffffffffffffffffff163b11156111f6578273ffffffffffffffffffffffffffffffffffffffff1663150b7a02611089610c84565b8685856040518563ffffffff1660e01b81526004016110ab949392919061221b565b6020604051808303816000875af19250505080156110e757506040513d601f19601f820116820180604052508101906110e4919061227c565b60015b61116b573d8060008114611117576040519150601f19603f3d011682016040523d82523d6000602084013e61111c565b606091505b50600081510361116357836040517f64a0ae9200000000000000000000000000000000000000000000000000000000815260040161115a91906118bd565b60405180910390fd5b805181602001fd5b63150b7a0260e01b7bffffffffffffffffffffffffffffffffffffffffffffffffffffffff1916817bffffffffffffffffffffffffffffffffffffffffffffffffffffffff1916146111f457836040517f64a0ae920000000000000000000000000000000000000000000000000000000081526004016111eb91906118bd565b60405180910390fd5b505b50505050565b60006002600083815260200190815260200160002060009054906101000a900473ffffffffffffffffffffffffffffffffffffffff169050919050565b80806112725750600073ffffffffffffffffffffffffffffffffffffffff168273ffffffffffffffffffffffffffffffffffffffff1614155b156113a657600061128284610bbf565b9050600073ffffffffffffffffffffffffffffffffffffffff168373ffffffffffffffffffffffffffffffffffffffff16141580156112ed57508273ffffffffffffffffffffffffffffffffffffffff168173ffffffffffffffffffffffffffffffffffffffff1614155b801561130057506112fe8184610ac1565b155b1561134257826040517fa9fbf51f00000000000000000000000000000000000000000000000000000000815260040161133991906118bd565b60405180910390fd5b81156113a457838573ffffffffffffffffffffffffffffffffffffffff168273ffffffffffffffffffffffffffffffffffffffff167f8c5be1e5ebec7d5bd14f71427d1e84f3dd0314c0f7b2291e5b200ac8c7c3b92560405160405180910390a45b505b836004600085815260200190815260200160002060006101000a81548173ffffffffffffffffffffffffffffffffffffffff021916908373ffffffffffffffffffffffffffffffffffffffff16021790555050505050565b61140883836114de565b6114156000848484611045565b505050565b6114258383836115d7565b6114d957600073ffffffffffffffffffffffffffffffffffffffff168373ffffffffffffffffffffffffffffffffffffffff160361149a57806040517f7e2732890000000000000000000000000000000000000000000000000000000081526004016114919190611b51565b60405180910390fd5b81816040517f177e802f0000000000000000000000000000000000000000000000000000000081526004016114d09291906122a9565b60405180910390fd5b505050565b600073ffffffffffffffffffffffffffffffffffffffff168273ffffffffffffffffffffffffffffffffffffffff16036115505760006040517f64a0ae9200000000000000000000000000000000000000000000000000000000815260040161154791906118bd565b60405180910390fd5b600061155e83836000610cbc565b9050600073ffffffffffffffffffffffffffffffffffffffff168173ffffffffffffffffffffffffffffffffffffffff16146115d25760006040517f73c6ac6e0000000000000000000000000000000000000000000000000000000081526004016115c991906118bd565b60405180910390fd5b505050565b60008073ffffffffffffffffffffffffffffffffffffffff168373ffffffffffffffffffffffffffffffffffffffff161415801561168f57508273ffffffffffffffffffffffffffffffffffffffff168473ffffffffffffffffffffffffffffffffffffffff161480611650575061164f8484610ac1565b5b8061168e57508273ffffffffffffffffffffffffffffffffffffffff1661167683610c47565b73ffffffffffffffffffffffffffffffffffffffff16145b5b90509392505050565b6000604051905090565b600080fd5b600080fd5b60007fffffffff0000000000000000000000000000000000000000000000000000000082169050919050565b6116e1816116ac565b81146116ec57600080fd5b50565b6000813590506116fe816116d8565b92915050565b60006020828403121561171a576117196116a2565b5b6000611728848285016116ef565b91505092915050565b60008115159050919050565b61174681611731565b82525050565b6000602082019050611761600083018461173d565b92915050565b600081519050919050565b600082825260208201905092915050565b60005b838110156117a1578082015181840152602081019050611786565b60008484015250505050565b6000601f19601f8301169050919050565b60006117c982611767565b6117d38185611772565b93506117e3818560208601611783565b6117ec816117ad565b840191505092915050565b6000602082019050818103600083015261181181846117be565b905092915050565b6000819050919050565b61182c81611819565b811461183757600080fd5b50565b60008135905061184981611823565b92915050565b600060208284031215611865576118646116a2565b5b60006118738482850161183a565b91505092915050565b600073ffffffffffffffffffffffffffffffffffffffff82169050919050565b60006118a78261187c565b9050919050565b6118b78161189c565b82525050565b60006020820190506118d260008301846118ae565b92915050565b6118e18161189c565b81146118ec57600080fd5b50565b6000813590506118fe816118d8565b92915050565b6000806040838503121561191b5761191a6116a2565b5b6000611929858286016118ef565b925050602061193a8582860161183a565b9150509250929050565b60008060006060848603121561195d5761195c6116a2565b5b600061196b868287016118ef565b935050602061197c868287016118ef565b925050604061198d8682870161183a565b9150509250925092565b600080fd5b600080fd5b7f4e487b7100000000000000000000000000000000000000000000000000000000600052604160045260246000fd5b6119d9826117ad565b810181811067ffffffffffffffff821117156119f8576119f76119a1565b5b80604052505050565b6000611a0b611698565b9050611a1782826119d0565b919050565b600067ffffffffffffffff821115611a3757611a366119a1565b5b611a40826117ad565b9050602081019050919050565b82818337600083830152505050565b6000611a6f611a6a84611a1c565b611a01565b905082815260208101848484011115611a8b57611a8a61199c565b5b611a96848285611a4d565b509392505050565b600082601f830112611ab357611ab2611997565b5b8135611ac3848260208601611a5c565b91505092915050565b600060208284031215611ae257611ae16116a2565b5b600082013567ffffffffffffffff811115611b0057611aff6116a7565b5b611b0c84828501611a9e565b91505092915050565b600060208284031215611b2b57611b2a6116a2565b5b6000611b39848285016118ef565b91505092915050565b611b4b81611819565b82525050565b6000602082019050611b666000830184611b42565b92915050565b611b7581611731565b8114611b8057600080fd5b50565b600081359050611b9281611b6c565b92915050565b60008060408385031215611baf57611bae6116a2565b5b6000611bbd858286016118ef565b9250506020611bce85828601611b83565b9150509250929050565b600067ffffffffffffffff821115611bf357611bf26119a1565b5b611bfc826117ad565b9050602081019050919050565b6000611c1c611c1784611bd8565b611a01565b905082815260208101848484011115611c3857611c3761199c565b5b611c43848285611a4d565b509392505050565b600082601f830112611c6057611c5f611997565b5b8135611c70848260208601611c09565b91505092915050565b60008060008060808587031215611c9357611c926116a2565b5b6000611ca1878288016118ef565b9450506020611cb2878288016118ef565b9350506040611cc38782880161183a565b925050606085013567ffffffffffffffff811115611ce457611ce36116a7565b5b611cf087828801611c4b565b91505092959194509250565b60008060408385031215611d1357611d126116a2565b5b6000611d21858286016118ef565b9250506020611d32858286016118ef565b9150509250929050565b7f4e487b7100000000000000000000000000000000000000000000000000000000600052602260045260246000fd5b60006002820490506001821680611d8357607f821691505b602082108103611d9657611d95611d3c565b5b50919050565b7f596f752063616e206f6e6c79206d696e74206f6e65204e46542070657220776160008201527f6c6c657400000000000000000000000000000000000000000000000000000000602082015250565b6000611df8602483611772565b9150611e0382611d9c565b604082019050919050565b60006020820190508181036000830152611e2781611deb565b9050919050565b7f4e487b7100000000000000000000000000000000000000000000000000000000600052601160045260246000fd5b6000611e6882611819565b91507fffffffffffffffffffffffffffffffffffffffffffffffffffffffffffffffff8203611e9a57611e99611e2e565b5b600182019050919050565b6000606082019050611eba60008301866118ae565b611ec76020830185611b42565b611ed460408301846118ae565b949350505050565b7f4f6e6c79206f776e65722063616e207365742062617365205552490000000000600082015250565b6000611f12601b83611772565b9150611f1d82611edc565b602082019050919050565b60006020820190508181036000830152611f4181611f05565b9050919050565b60008190508160005260206000209050919050565b60006020601f8301049050919050565b600082821b905092915050565b600060088302611faa7fffffffffffffffffffffffffffffffffffffffffffffffffffffffffffffffff82611f6d565b611fb48683611f6d565b95508019841693508086168417925050509392505050565b6000819050919050565b6000611ff1611fec611fe784611819565b611fcc565b611819565b9050919050565b6000819050919050565b61200b83611fd6565b61201f61201782611ff8565b848454611f7a565b825550505050565b600090565b612034612027565b61203f818484612002565b505050565b5b818110156120635761205860008261202c565b600181019050612045565b5050565b601f8211156120a85761207981611f48565b61208284611f5d565b81016020851015612091578190505b6120a561209d85611f5d565b830182612044565b50505b505050565b600082821c905092915050565b60006120cb600019846008026120ad565b1980831691505092915050565b60006120e483836120ba565b9150826002028217905092915050565b6120fd82611767565b67ffffffffffffffff811115612116576121156119a1565b5b6121208254611d6b565b61212b828285612067565b600060209050601f83116001811461215e576000841561214c578287015190505b61215685826120d8565b8655506121be565b601f19841661216c86611f48565b60005b828110156121945784890151825560018201915060208501945060208101905061216f565b868310156121b157848901516121ad601f8916826120ba565b8355505b6001600288020188555050505b505050505050565b600081519050919050565b600082825260208201905092915050565b60006121ed826121c6565b6121f781856121d1565b9350612207818560208601611783565b612210816117ad565b840191505092915050565b600060808201905061223060008301876118ae565b61223d60208301866118ae565b61224a6040830185611b42565b818103606083015261225c81846121e2565b905095945050505050565b600081519050612276816116d8565b92915050565b600060208284031215612292576122916116a2565b5b60006122a084828501612267565b91505092915050565b60006040820190506122be60008301856118ae565b6122cb6020830184611b42565b939250505056fe68747470733a2f2f626c6f78696d612d63616e6469646174652d6e66742e76657263656c2e6170702f6170692f63616e6469646174654e46542f31a2646970667358221220155bc5114f7f238ec5ce7ef6718ab5788a58c028e1e46d3cab9074add475f29164736f6c6343000818003368747470733a2f2f626c6f78696d612d63616e6469646174652d6e66742e76657263656c2e6170702f6170692f63616e6469646174654e46542f757269",
  "linkReferences": {},
  "deployedLinkReferences": {}
}