{
  "_format": "hh-sol-artifact-1",
  "contractName": "BloximaNFT",
  "sourceName": "contracts/BloximaNFT.sol",
  "abi": [
    {
      "inputs": [
        {
          "internalType": "address",
          "name": "bloximaCandidateNFTAddress",
          "type": "address"
        }
      ],
      "stateMutability": "nonpayable",
      "type": "constructor"
    },
    {
      "inputs": [
        {
          "internalType": "address",
          "name": "sender",
          "type": "address"
        },
        {
          "internalType": "uint256",
          "name": "tokenId",
          "type": "uint256"
        },
        {
          "internalType": "address",
          "name": "owner",
          "type": "address"
        }
      ],
      "name": "ERC721IncorrectOwner",
      "type": "error"
    },
    {
      "inputs": [
        {
          "internalType": "address",
          "name": "operator",
          "type": "address"
        },
        {
          "internalType": "uint256",
          "name": "tokenId",
          "type": "uint256"
        }
      ],
      "name": "ERC721InsufficientApproval",
      "type": "error"
    },
    {
      "inputs": [
        {
          "internalType": "address",
          "name": "approver",
          "type": "address"
        }
      ],
      "name": "ERC721InvalidApprover",
      "type": "error"
    },
    {
      "inputs": [
        {
          "internalType": "address",
          "name": "operator",
          "type": "address"
        }
      ],
      "name": "ERC721InvalidOperator",
      "type": "error"
    },
    {
      "inputs": [
        {
          "internalType": "address",
          "name": "owner",
          "type": "address"
        }
      ],
      "name": "ERC721InvalidOwner",
      "type": "error"
    },
    {
      "inputs": [
        {
          "internalType": "address",
          "name": "receiver",
          "type": "address"
        }
      ],
      "name": "ERC721InvalidReceiver",
      "type": "error"
    },
    {
      "inputs": [
        {
          "internalType": "address",
          "name": "sender",
          "type": "address"
        }
      ],
      "name": "ERC721InvalidSender",
      "type": "error"
    },
    {
      "inputs": [
        {
          "internalType": "uint256",
          "name": "tokenId",
          "type": "uint256"
        }
      ],
      "name": "ERC721NonexistentToken",
      "type": "error"
    },
    {
      "anonymous": false,
      "inputs": [
        {
          "indexed": true,
          "internalType": "address",
          "name": "owner",
          "type": "address"
        },
        {
          "indexed": true,
          "internalType": "address",
          "name": "approved",
          "type": "address"
        },
        {
          "indexed": true,
          "internalType": "uint256",
          "name": "tokenId",
          "type": "uint256"
        }
      ],
      "name": "Approval",
      "type": "event"
    },
    {
      "anonymous": false,
      "inputs": [
        {
          "indexed": true,
          "internalType": "address",
          "name": "owner",
          "type": "address"
        },
        {
          "indexed": true,
          "internalType": "address",
          "name": "operator",
          "type": "address"
        },
        {
          "indexed": false,
          "internalType": "bool",
          "name": "approved",
          "type": "bool"
        }
      ],
      "name": "ApprovalForAll",
      "type": "event"
    },
    {
      "anonymous": false,
      "inputs": [
        {
          "indexed": true,
          "internalType": "address",
          "name": "from",
          "type": "address"
        },
        {
          "indexed": true,
          "internalType": "address",
          "name": "to",
          "type": "address"
        },
        {
          "indexed": true,
          "internalType": "uint256",
          "name": "tokenId",
          "type": "uint256"
        }
      ],
      "name": "Transfer",
      "type": "event"
    },
    {
      "inputs": [
        {
          "internalType": "address",
          "name": "to",
          "type": "address"
        },
        {
          "internalType": "uint256",
          "name": "tokenId",
          "type": "uint256"
        }
      ],
      "name": "approve",
      "outputs": [],
      "stateMutability": "nonpayable",
      "type": "function"
    },
    {
      "inputs": [
        {
          "internalType": "address",
          "name": "owner",
          "type": "address"
        }
      ],
      "name": "balanceOf",
      "outputs": [
        {
          "internalType": "uint256",
          "name": "",
          "type": "uint256"
        }
      ],
      "stateMutability": "view",
      "type": "function"
    },
    {
      "inputs": [],
      "name": "candidateNFTContract",
      "outputs": [
        {
          "internalType": "contract BloximaCandidateNFT",
          "name": "",
          "type": "address"
        }
      ],
      "stateMutability": "view",
      "type": "function"
    },
    {
      "inputs": [
        {
          "internalType": "uint256",
          "name": "tokenId",
          "type": "uint256"
        }
      ],
      "name": "getApproved",
      "outputs": [
        {
          "internalType": "address",
          "name": "",
          "type": "address"
        }
      ],
      "stateMutability": "view",
      "type": "function"
    },
    {
      "inputs": [
        {
          "internalType": "address",
          "name": "",
          "type": "address"
        }
      ],
      "name": "hasMintedNFT",
      "outputs": [
        {
          "internalType": "bool",
          "name": "",
          "type": "bool"
        }
      ],
      "stateMutability": "view",
      "type": "function"
    },
    {
      "inputs": [
        {
          "internalType": "address",
          "name": "owner",
          "type": "address"
        },
        {
          "internalType": "address",
          "name": "operator",
          "type": "address"
        }
      ],
      "name": "isApprovedForAll",
      "outputs": [
        {
          "internalType": "bool",
          "name": "",
          "type": "bool"
        }
      ],
      "stateMutability": "view",
      "type": "function"
    },
    {
      "inputs": [],
      "name": "maxSupply",
      "outputs": [
        {
          "internalType": "uint256",
          "name": "",
          "type": "uint256"
        }
      ],
      "stateMutability": "view",
      "type": "function"
    },
    {
      "inputs": [],
      "name": "mintNFT",
      "outputs": [],
      "stateMutability": "nonpayable",
      "type": "function"
    },
    {
      "inputs": [],
      "name": "name",
      "outputs": [
        {
          "internalType": "string",
          "name": "",
          "type": "string"
        }
      ],
      "stateMutability": "view",
      "type": "function"
    },
    {
      "inputs": [],
      "name": "owner",
      "outputs": [
        {
          "internalType": "address",
          "name": "",
          "type": "address"
        }
      ],
      "stateMutability": "view",
      "type": "function"
    },
    {
      "inputs": [
        {
          "internalType": "uint256",
          "name": "tokenId",
          "type": "uint256"
        }
      ],
      "name": "ownerOf",
      "outputs": [
        {
          "internalType": "address",
          "name": "",
          "type": "address"
        }
      ],
      "stateMutability": "view",
      "type": "function"
    },
    {
      "inputs": [
        {
          "internalType": "address",
          "name": "from",
          "type": "address"
        },
        {
          "internalType": "address",
          "name": "to",
          "type": "address"
        },
        {
          "internalType": "uint256",
          "name": "tokenId",
          "type": "uint256"
        }
      ],
      "name": "safeTransferFrom",
      "outputs": [],
      "stateMutability": "nonpayable",
      "type": "function"
    },
    {
      "inputs": [
        {
          "internalType": "address",
          "name": "from",
          "type": "address"
        },
        {
          "internalType": "address",
          "name": "to",
          "type": "address"
        },
        {
          "internalType": "uint256",
          "name": "tokenId",
          "type": "uint256"
        },
        {
          "internalType": "bytes",
          "name": "data",
          "type": "bytes"
        }
      ],
      "name": "safeTransferFrom",
      "outputs": [],
      "stateMutability": "nonpayable",
      "type": "function"
    },
    {
      "inputs": [
        {
          "internalType": "address",
          "name": "operator",
          "type": "address"
        },
        {
          "internalType": "bool",
          "name": "approved",
          "type": "bool"
        }
      ],
      "name": "setApprovalForAll",
      "outputs": [],
      "stateMutability": "nonpayable",
      "type": "function"
    },
    {
      "inputs": [
        {
          "internalType": "address",
          "name": "_bloximaCandidateNFTAddress",
          "type": "address"
        }
      ],
      "name": "setCandidateNFTContract",
      "outputs": [],
      "stateMutability": "nonpayable",
      "type": "function"
    },
    {
      "inputs": [
        {
          "internalType": "bytes4",
          "name": "interfaceId",
          "type": "bytes4"
        }
      ],
      "name": "supportsInterface",
      "outputs": [
        {
          "internalType": "bool",
          "name": "",
          "type": "bool"
        }
      ],
      "stateMutability": "view",
      "type": "function"
    },
    {
      "inputs": [],
      "name": "symbol",
      "outputs": [
        {
          "internalType": "string",
          "name": "",
          "type": "string"
        }
      ],
      "stateMutability": "view",
      "type": "function"
    },
    {
      "inputs": [],
      "name": "tokenCounter",
      "outputs": [
        {
          "internalType": "uint256",
          "name": "",
          "type": "uint256"
        }
      ],
      "stateMutability": "view",
      "type": "function"
    },
    {
      "inputs": [
        {
          "internalType": "uint256",
          "name": "_tokenId",
          "type": "uint256"
        }
      ],
      "name": "tokenURI",
      "outputs": [
        {
          "internalType": "string",
          "name": "",
          "type": "string"
        }
      ],
      "stateMutability": "view",
      "type": "function"
    },
    {
      "inputs": [
        {
          "internalType": "address",
          "name": "from",
          "type": "address"
        },
        {
          "internalType": "address",
          "name": "to",
          "type": "address"
        },
        {
          "internalType": "uint256",
          "name": "tokenId",
          "type": "uint256"
        }
      ],
      "name": "transferFrom",
      "outputs": [],
      "stateMutability": "nonpayable",
      "type": "function"
    }
  ],
  "bytecode": "0x608060405260646009553480156200001657600080fd5b5060405162002b0938038062002b0983398181016040528101906200003c9190620001c1565b6040518060400160405280600a81526020017f426c6f78696d614e4654000000000000000000000000000000000000000000008152506040518060400160405280600481526020017f424c4f58000000000000000000000000000000000000000000000000000000008152508160009081620000b991906200046d565b508060019081620000cb91906200046d565b50505033600760006101000a81548173ffffffffffffffffffffffffffffffffffffffff021916908373ffffffffffffffffffffffffffffffffffffffff16021790555080600860006101000a81548173ffffffffffffffffffffffffffffffffffffffff021916908373ffffffffffffffffffffffffffffffffffffffff1602179055505062000554565b600080fd5b600073ffffffffffffffffffffffffffffffffffffffff82169050919050565b600062000189826200015c565b9050919050565b6200019b816200017c565b8114620001a757600080fd5b50565b600081519050620001bb8162000190565b92915050565b600060208284031215620001da57620001d962000157565b5b6000620001ea84828501620001aa565b91505092915050565b600081519050919050565b7f4e487b7100000000000000000000000000000000000000000000000000000000600052604160045260246000fd5b7f4e487b7100000000000000000000000000000000000000000000000000000000600052602260045260246000fd5b600060028204905060018216806200027557607f821691505b6020821081036200028b576200028a6200022d565b5b50919050565b60008190508160005260206000209050919050565b60006020601f8301049050919050565b600082821b905092915050565b600060088302620002f57fffffffffffffffffffffffffffffffffffffffffffffffffffffffffffffffff82620002b6565b620003018683620002b6565b95508019841693508086168417925050509392505050565b6000819050919050565b6000819050919050565b60006200034e62000348620003428462000319565b62000323565b62000319565b9050919050565b6000819050919050565b6200036a836200032d565b62000382620003798262000355565b848454620002c3565b825550505050565b600090565b620003996200038a565b620003a68184846200035f565b505050565b5b81811015620003ce57620003c26000826200038f565b600181019050620003ac565b5050565b601f8211156200041d57620003e78162000291565b620003f284620002a6565b8101602085101562000402578190505b6200041a6200041185620002a6565b830182620003ab565b50505b505050565b600082821c905092915050565b6000620004426000198460080262000422565b1980831691505092915050565b60006200045d83836200042f565b9150826002028217905092915050565b6200047882620001f3565b67ffffffffffffffff811115620004945762000493620001fe565b5b620004a082546200025c565b620004ad828285620003d2565b600060209050601f831160018114620004e55760008415620004d0578287015190505b620004dc85826200044f565b8655506200054c565b601f198416620004f58662000291565b60005b828110156200051f57848901518255600182019150602085019450602081019050620004f8565b868310156200053f57848901516200053b601f8916826200042f565b8355505b6001600288020188555050505b505050505050565b6125a580620005646000396000f3fe608060405234801561001057600080fd5b506004361061012c5760003560e01c806395d89b41116100ad578063d4a6dfc111610071578063d4a6dfc11461032f578063d5abeb011461034b578063e28cb25a14610369578063e985e9c514610399578063febfd229146103c95761012c565b806395d89b411461028b578063a22cb465146102a9578063b88d4fde146102c5578063c87b56dd146102e1578063d082e381146103115761012c565b806323b872dd116100f457806323b872dd146101d557806342842e0e146101f15780636352211e1461020d57806370a082311461023d5780638da5cb5b1461026d5761012c565b806301ffc9a71461013157806306fdde0314610161578063081812fc1461017f578063095ea7b3146101af57806314f710fe146101cb575b600080fd5b61014b60048036038101906101469190611a50565b6103e7565b6040516101589190611a98565b60405180910390f35b6101696104c9565b6040516101769190611b43565b60405180910390f35b61019960048036038101906101949190611b9b565b61055b565b6040516101a69190611c09565b60405180910390f35b6101c960048036038101906101c49190611c50565b610577565b005b6101d361058d565b005b6101ef60048036038101906101ea9190611c90565b6107bc565b005b61020b60048036038101906102069190611c90565b6108be565b005b61022760048036038101906102229190611b9b565b6108de565b6040516102349190611c09565b60405180910390f35b61025760048036038101906102529190611ce3565b6108f0565b6040516102649190611d1f565b60405180910390f35b6102756109aa565b6040516102829190611c09565b60405180910390f35b6102936109d0565b6040516102a09190611b43565b60405180910390f35b6102c360048036038101906102be9190611d66565b610a62565b005b6102df60048036038101906102da9190611edb565b610a78565b005b6102fb60048036038101906102f69190611b9b565b610a95565b6040516103089190611b43565b60405180910390f35b610319610ac6565b6040516103269190611d1f565b60405180910390f35b61034960048036038101906103449190611ce3565b610acc565b005b610353610ba0565b6040516103609190611d1f565b60405180910390f35b610383600480360381019061037e9190611ce3565b610ba6565b6040516103909190611a98565b60405180910390f35b6103b360048036038101906103ae9190611f5e565b610bc6565b6040516103c09190611a98565b60405180910390f35b6103d1610c5a565b6040516103de9190611ffd565b60405180910390f35b60007f80ac58cd000000000000000000000000000000000000000000000000000000007bffffffffffffffffffffffffffffffffffffffffffffffffffffffff1916827bffffffffffffffffffffffffffffffffffffffffffffffffffffffff191614806104b257507f5b5e139f000000000000000000000000000000000000000000000000000000007bffffffffffffffffffffffffffffffffffffffffffffffffffffffff1916827bffffffffffffffffffffffffffffffffffffffffffffffffffffffff1916145b806104c257506104c182610c80565b5b9050919050565b6060600080546104d890612047565b80601f016020809104026020016040519081016040528092919081815260200182805461050490612047565b80156105515780601f1061052657610100808354040283529160200191610551565b820191906000526020600020905b81548152906001019060200180831161053457829003601f168201915b5050505050905090565b600061056682610cea565b5061057082610d72565b9050919050565b6105898282610584610daf565b610db7565b5050565b6000600860009054906101000a900473ffffffffffffffffffffffffffffffffffffffff1673ffffffffffffffffffffffffffffffffffffffff166370a08231336040518263ffffffff1660e01b81526004016105ea9190611c09565b602060405180830381865afa158015610607573d6000803e3d6000fd5b505050506040513d601f19601f8201168201806040525081019061062b919061208d565b1161066b576040517f08c379a000000000000000000000000000000000000000000000000000000000815260040161066290612106565b60405180910390fd5b600a60003373ffffffffffffffffffffffffffffffffffffffff1673ffffffffffffffffffffffffffffffffffffffff16815260200190815260200160002060009054906101000a900460ff16156106f8576040517f08c379a00000000000000000000000000000000000000000000000000000000081526004016106ef90612198565b60405180910390fd5b6009546006541061073e576040517f08c379a000000000000000000000000000000000000000000000000000000000815260040161073590612204565b60405180910390fd5b6006600081548092919061075190612253565b919050555061076233600654610dc9565b6001600a60003373ffffffffffffffffffffffffffffffffffffffff1673ffffffffffffffffffffffffffffffffffffffff16815260200190815260200160002060006101000a81548160ff021916908315150217905550565b600073ffffffffffffffffffffffffffffffffffffffff168273ffffffffffffffffffffffffffffffffffffffff160361082e5760006040517f64a0ae920000000000000000000000000000000000000000000000000000000081526004016108259190611c09565b60405180910390fd5b6000610842838361083d610daf565b610de7565b90508373ffffffffffffffffffffffffffffffffffffffff168173ffffffffffffffffffffffffffffffffffffffff16146108b8578382826040517f64283d7b0000000000000000000000000000000000000000000000000000000081526004016108af9392919061229b565b60405180910390fd5b50505050565b6108d983838360405180602001604052806000815250610a78565b505050565b60006108e982610cea565b9050919050565b60008073ffffffffffffffffffffffffffffffffffffffff168273ffffffffffffffffffffffffffffffffffffffff16036109635760006040517f89c62b6400000000000000000000000000000000000000000000000000000000815260040161095a9190611c09565b60405180910390fd5b600360008373ffffffffffffffffffffffffffffffffffffffff1673ffffffffffffffffffffffffffffffffffffffff168152602001908152602001600020549050919050565b600760009054906101000a900473ffffffffffffffffffffffffffffffffffffffff1681565b6060600180546109df90612047565b80601f0160208091040260200160405190810160405280929190818152602001828054610a0b90612047565b8015610a585780601f10610a2d57610100808354040283529160200191610a58565b820191906000526020600020905b815481529060010190602001808311610a3b57829003601f168201915b5050505050905090565b610a74610a6d610daf565b8383611001565b5050565b610a838484846107bc565b610a8f84848484611170565b50505050565b6060610aa082611327565b604051602001610ab09190612380565b6040516020818303038152906040529050919050565b60065481565b600760009054906101000a900473ffffffffffffffffffffffffffffffffffffffff1673ffffffffffffffffffffffffffffffffffffffff163373ffffffffffffffffffffffffffffffffffffffff1614610b5c576040517f08c379a0000000000000000000000000000000000000000000000000000000008152600401610b5390612414565b60405180910390fd5b80600860006101000a81548173ffffffffffffffffffffffffffffffffffffffff021916908373ffffffffffffffffffffffffffffffffffffffff16021790555050565b60095481565b600a6020528060005260406000206000915054906101000a900460ff1681565b6000600560008473ffffffffffffffffffffffffffffffffffffffff1673ffffffffffffffffffffffffffffffffffffffff16815260200190815260200160002060008373ffffffffffffffffffffffffffffffffffffffff1673ffffffffffffffffffffffffffffffffffffffff16815260200190815260200160002060009054906101000a900460ff16905092915050565b600860009054906101000a900473ffffffffffffffffffffffffffffffffffffffff1681565b60007f01ffc9a7000000000000000000000000000000000000000000000000000000007bffffffffffffffffffffffffffffffffffffffffffffffffffffffff1916827bffffffffffffffffffffffffffffffffffffffffffffffffffffffff1916149050919050565b600080610cf6836113f5565b9050600073ffffffffffffffffffffffffffffffffffffffff168173ffffffffffffffffffffffffffffffffffffffff1603610d6957826040517f7e273289000000000000000000000000000000000000000000000000000000008152600401610d609190611d1f565b60405180910390fd5b80915050919050565b60006004600083815260200190815260200160002060009054906101000a900473ffffffffffffffffffffffffffffffffffffffff169050919050565b600033905090565b610dc48383836001611432565b505050565b610de38282604051806020016040528060008152506115f7565b5050565b600080610df3846113f5565b9050600073ffffffffffffffffffffffffffffffffffffffff168373ffffffffffffffffffffffffffffffffffffffff1614610e3557610e34818486611613565b5b600073ffffffffffffffffffffffffffffffffffffffff168173ffffffffffffffffffffffffffffffffffffffff1614610ec657610e77600085600080611432565b6001600360008373ffffffffffffffffffffffffffffffffffffffff1673ffffffffffffffffffffffffffffffffffffffff168152602001908152602001600020600082825403925050819055505b600073ffffffffffffffffffffffffffffffffffffffff168573ffffffffffffffffffffffffffffffffffffffff1614610f49576001600360008773ffffffffffffffffffffffffffffffffffffffff1673ffffffffffffffffffffffffffffffffffffffff168152602001908152602001600020600082825401925050819055505b846002600086815260200190815260200160002060006101000a81548173ffffffffffffffffffffffffffffffffffffffff021916908373ffffffffffffffffffffffffffffffffffffffff160217905550838573ffffffffffffffffffffffffffffffffffffffff168273ffffffffffffffffffffffffffffffffffffffff167fddf252ad1be2c89b69c2b068fc378daa952ba7f163c4a11628f55a4df523b3ef60405160405180910390a4809150509392505050565b600073ffffffffffffffffffffffffffffffffffffffff168273ffffffffffffffffffffffffffffffffffffffff160361107257816040517f5b08ba180000000000000000000000000000000000000000000000000000000081526004016110699190611c09565b60405180910390fd5b80600560008573ffffffffffffffffffffffffffffffffffffffff1673ffffffffffffffffffffffffffffffffffffffff16815260200190815260200160002060008473ffffffffffffffffffffffffffffffffffffffff1673ffffffffffffffffffffffffffffffffffffffff16815260200190815260200160002060006101000a81548160ff0219169083151502179055508173ffffffffffffffffffffffffffffffffffffffff168373ffffffffffffffffffffffffffffffffffffffff167f17307eab39ab6107e8899845ad3d59bd9653f200f220920489ca2b5937696c31836040516111639190611a98565b60405180910390a3505050565b60008373ffffffffffffffffffffffffffffffffffffffff163b1115611321578273ffffffffffffffffffffffffffffffffffffffff1663150b7a026111b4610daf565b8685856040518563ffffffff1660e01b81526004016111d69493929190612489565b6020604051808303816000875af192505050801561121257506040513d601f19601f8201168201806040525081019061120f91906124ea565b60015b611296573d8060008114611242576040519150601f19603f3d011682016040523d82523d6000602084013e611247565b606091505b50600081510361128e57836040517f64a0ae920000000000000000000000000000000000000000000000000000000081526004016112859190611c09565b60405180910390fd5b805181602001fd5b63150b7a0260e01b7bffffffffffffffffffffffffffffffffffffffffffffffffffffffff1916817bffffffffffffffffffffffffffffffffffffffffffffffffffffffff19161461131f57836040517f64a0ae920000000000000000000000000000000000000000000000000000000081526004016113169190611c09565b60405180910390fd5b505b50505050565b606060006001611336846116d7565b01905060008167ffffffffffffffff81111561135557611354611db0565b5b6040519080825280601f01601f1916602001820160405280156113875781602001600182028036833780820191505090505b509050600082602001820190505b6001156113ea578080600190039150507f3031323334353637383961626364656600000000000000000000000000000000600a86061a8153600a85816113de576113dd612517565b5b04945060008503611395575b819350505050919050565b60006002600083815260200190815260200160002060009054906101000a900473ffffffffffffffffffffffffffffffffffffffff169050919050565b808061146b5750600073ffffffffffffffffffffffffffffffffffffffff168273ffffffffffffffffffffffffffffffffffffffff1614155b1561159f57600061147b84610cea565b9050600073ffffffffffffffffffffffffffffffffffffffff168373ffffffffffffffffffffffffffffffffffffffff16141580156114e657508273ffffffffffffffffffffffffffffffffffffffff168173ffffffffffffffffffffffffffffffffffffffff1614155b80156114f957506114f78184610bc6565b155b1561153b57826040517fa9fbf51f0000000000000000000000000000000000000000000000000000000081526004016115329190611c09565b60405180910390fd5b811561159d57838573ffffffffffffffffffffffffffffffffffffffff168273ffffffffffffffffffffffffffffffffffffffff167f8c5be1e5ebec7d5bd14f71427d1e84f3dd0314c0f7b2291e5b200ac8c7c3b92560405160405180910390a45b505b836004600085815260200190815260200160002060006101000a81548173ffffffffffffffffffffffffffffffffffffffff021916908373ffffffffffffffffffffffffffffffffffffffff16021790555050505050565b611601838361182a565b61160e6000848484611170565b505050565b61161e838383611923565b6116d257600073ffffffffffffffffffffffffffffffffffffffff168373ffffffffffffffffffffffffffffffffffffffff160361169357806040517f7e27328900000000000000000000000000000000000000000000000000000000815260040161168a9190611d1f565b60405180910390fd5b81816040517f177e802f0000000000000000000000000000000000000000000000000000000081526004016116c9929190612546565b60405180910390fd5b505050565b600080600090507a184f03e93ff9f4daa797ed6e38ed64bf6a1f0100000000000000008310611735577a184f03e93ff9f4daa797ed6e38ed64bf6a1f010000000000000000838161172b5761172a612517565b5b0492506040810190505b6d04ee2d6d415b85acef81000000008310611772576d04ee2d6d415b85acef8100000000838161176857611767612517565b5b0492506020810190505b662386f26fc1000083106117a157662386f26fc10000838161179757611796612517565b5b0492506010810190505b6305f5e10083106117ca576305f5e10083816117c0576117bf612517565b5b0492506008810190505b61271083106117ef5761271083816117e5576117e4612517565b5b0492506004810190505b60648310611812576064838161180857611807612517565b5b0492506002810190505b600a8310611821576001810190505b80915050919050565b600073ffffffffffffffffffffffffffffffffffffffff168273ffffffffffffffffffffffffffffffffffffffff160361189c5760006040517f64a0ae920000000000000000000000000000000000000000000000000000000081526004016118939190611c09565b60405180910390fd5b60006118aa83836000610de7565b9050600073ffffffffffffffffffffffffffffffffffffffff168173ffffffffffffffffffffffffffffffffffffffff161461191e5760006040517f73c6ac6e0000000000000000000000000000000000000000000000000000000081526004016119159190611c09565b60405180910390fd5b505050565b60008073ffffffffffffffffffffffffffffffffffffffff168373ffffffffffffffffffffffffffffffffffffffff16141580156119db57508273ffffffffffffffffffffffffffffffffffffffff168473ffffffffffffffffffffffffffffffffffffffff16148061199c575061199b8484610bc6565b5b806119da57508273ffffffffffffffffffffffffffffffffffffffff166119c283610d72565b73ffffffffffffffffffffffffffffffffffffffff16145b5b90509392505050565b6000604051905090565b600080fd5b600080fd5b60007fffffffff0000000000000000000000000000000000000000000000000000000082169050919050565b611a2d816119f8565b8114611a3857600080fd5b50565b600081359050611a4a81611a24565b92915050565b600060208284031215611a6657611a656119ee565b5b6000611a7484828501611a3b565b91505092915050565b60008115159050919050565b611a9281611a7d565b82525050565b6000602082019050611aad6000830184611a89565b92915050565b600081519050919050565b600082825260208201905092915050565b60005b83811015611aed578082015181840152602081019050611ad2565b60008484015250505050565b6000601f19601f8301169050919050565b6000611b1582611ab3565b611b1f8185611abe565b9350611b2f818560208601611acf565b611b3881611af9565b840191505092915050565b60006020820190508181036000830152611b5d8184611b0a565b905092915050565b6000819050919050565b611b7881611b65565b8114611b8357600080fd5b50565b600081359050611b9581611b6f565b92915050565b600060208284031215611bb157611bb06119ee565b5b6000611bbf84828501611b86565b91505092915050565b600073ffffffffffffffffffffffffffffffffffffffff82169050919050565b6000611bf382611bc8565b9050919050565b611c0381611be8565b82525050565b6000602082019050611c1e6000830184611bfa565b92915050565b611c2d81611be8565b8114611c3857600080fd5b50565b600081359050611c4a81611c24565b92915050565b60008060408385031215611c6757611c666119ee565b5b6000611c7585828601611c3b565b9250506020611c8685828601611b86565b9150509250929050565b600080600060608486031215611ca957611ca86119ee565b5b6000611cb786828701611c3b565b9350506020611cc886828701611c3b565b9250506040611cd986828701611b86565b9150509250925092565b600060208284031215611cf957611cf86119ee565b5b6000611d0784828501611c3b565b91505092915050565b611d1981611b65565b82525050565b6000602082019050611d346000830184611d10565b92915050565b611d4381611a7d565b8114611d4e57600080fd5b50565b600081359050611d6081611d3a565b92915050565b60008060408385031215611d7d57611d7c6119ee565b5b6000611d8b85828601611c3b565b9250506020611d9c85828601611d51565b9150509250929050565b600080fd5b600080fd5b7f4e487b7100000000000000000000000000000000000000000000000000000000600052604160045260246000fd5b611de882611af9565b810181811067ffffffffffffffff82111715611e0757611e06611db0565b5b80604052505050565b6000611e1a6119e4565b9050611e268282611ddf565b919050565b600067ffffffffffffffff821115611e4657611e45611db0565b5b611e4f82611af9565b9050602081019050919050565b82818337600083830152505050565b6000611e7e611e7984611e2b565b611e10565b905082815260208101848484011115611e9a57611e99611dab565b5b611ea5848285611e5c565b509392505050565b600082601f830112611ec257611ec1611da6565b5b8135611ed2848260208601611e6b565b91505092915050565b60008060008060808587031215611ef557611ef46119ee565b5b6000611f0387828801611c3b565b9450506020611f1487828801611c3b565b9350506040611f2587828801611b86565b925050606085013567ffffffffffffffff811115611f4657611f456119f3565b5b611f5287828801611ead565b91505092959194509250565b60008060408385031215611f7557611f746119ee565b5b6000611f8385828601611c3b565b9250506020611f9485828601611c3b565b9150509250929050565b6000819050919050565b6000611fc3611fbe611fb984611bc8565b611f9e565b611bc8565b9050919050565b6000611fd582611fa8565b9050919050565b6000611fe782611fca565b9050919050565b611ff781611fdc565b82525050565b60006020820190506120126000830184611fee565b92915050565b7f4e487b7100000000000000000000000000000000000000000000000000000000600052602260045260246000fd5b6000600282049050600182168061205f57607f821691505b60208210810361207257612071612018565b5b50919050565b60008151905061208781611b6f565b92915050565b6000602082840312156120a3576120a26119ee565b5b60006120b184828501612078565b91505092915050565b7f596f7520617265206e6f7420612063616e646964617465000000000000000000600082015250565b60006120f0601783611abe565b91506120fb826120ba565b602082019050919050565b6000602082019050818103600083015261211f816120e3565b9050919050565b7f596f752063616e206f6e6c79206d696e74206f6e65204e46542070657220776160008201527f6c6c657400000000000000000000000000000000000000000000000000000000602082015250565b6000612182602483611abe565b915061218d82612126565b604082019050919050565b600060208201905081810360008301526121b181612175565b9050919050565b7f4d617820737570706c7920726561636865640000000000000000000000000000600082015250565b60006121ee601283611abe565b91506121f9826121b8565b602082019050919050565b6000602082019050818103600083015261221d816121e1565b9050919050565b7f4e487b7100000000000000000000000000000000000000000000000000000000600052601160045260246000fd5b600061225e82611b65565b91507fffffffffffffffffffffffffffffffffffffffffffffffffffffffffffffffff82036122905761228f612224565b5b600182019050919050565b60006060820190506122b06000830186611bfa565b6122bd6020830185611d10565b6122ca6040830184611bfa565b949350505050565b600081905092915050565b7f68747470733a2f2f626c6f78696d612d6e66742e76657263656c2e6170702f6160008201527f70692f6e66742f7572692f000000000000000000000000000000000000000000602082015250565b6000612339602b836122d2565b9150612344826122dd565b602b82019050919050565b600061235a82611ab3565b61236481856122d2565b9350612374818560208601611acf565b80840191505092915050565b600061238b8261232c565b9150612397828461234f565b915081905092915050565b7f4f6e6c79206f776e65722063616e207365742063616e646964617465204e465460008201527f20636f6e74726163740000000000000000000000000000000000000000000000602082015250565b60006123fe602983611abe565b9150612409826123a2565b604082019050919050565b6000602082019050818103600083015261242d816123f1565b9050919050565b600081519050919050565b600082825260208201905092915050565b600061245b82612434565b612465818561243f565b9350612475818560208601611acf565b61247e81611af9565b840191505092915050565b600060808201905061249e6000830187611bfa565b6124ab6020830186611bfa565b6124b86040830185611d10565b81810360608301526124ca8184612450565b905095945050505050565b6000815190506124e481611a24565b92915050565b600060208284031215612500576124ff6119ee565b5b600061250e848285016124d5565b91505092915050565b7f4e487b7100000000000000000000000000000000000000000000000000000000600052601260045260246000fd5b600060408201905061255b6000830185611bfa565b6125686020830184611d10565b939250505056fea26469706673582212202b277e50d9ff26cf2a243937a4ad0e337586f19292b25d7f38584a342a07100264736f6c63430008180033",
  "linkReferences": {},
  "deployedLinkReferences": {}
}